{
  "contractName": "SolnSquareVerifier",
  "abi": [
    {
      "constant": true,
      "inputs": [
        {
          "name": "interfaceId",
          "type": "bytes4"
        }
      ],
      "name": "supportsInterface",
      "outputs": [
        {
          "name": "",
          "type": "bool"
        }
      ],
      "payable": false,
      "stateMutability": "view",
      "type": "function",
      "signature": "0x01ffc9a7"
    },
    {
      "constant": true,
      "inputs": [],
      "name": "name",
      "outputs": [
        {
          "name": "",
          "type": "string"
        }
      ],
      "payable": false,
      "stateMutability": "view",
      "type": "function",
      "signature": "0x06fdde03"
    },
    {
      "constant": true,
      "inputs": [
        {
          "name": "tokenId",
          "type": "uint256"
        }
      ],
      "name": "getApproved",
      "outputs": [
        {
          "name": "",
          "type": "address"
        }
      ],
      "payable": false,
      "stateMutability": "view",
      "type": "function",
      "signature": "0x081812fc"
    },
    {
      "constant": false,
      "inputs": [
        {
          "name": "to",
          "type": "address"
        },
        {
          "name": "tokenId",
          "type": "uint256"
        }
      ],
      "name": "approve",
      "outputs": [],
      "payable": false,
      "stateMutability": "nonpayable",
      "type": "function",
      "signature": "0x095ea7b3"
    },
    {
      "constant": false,
      "inputs": [
        {
          "name": "newValue",
          "type": "bool"
        }
      ],
      "name": "setPaused",
      "outputs": [],
      "payable": false,
      "stateMutability": "nonpayable",
      "type": "function",
      "signature": "0x16c38b3c"
    },
    {
      "constant": true,
      "inputs": [],
      "name": "totalSupply",
      "outputs": [
        {
          "name": "",
          "type": "uint256"
        }
      ],
      "payable": false,
      "stateMutability": "view",
      "type": "function",
      "signature": "0x18160ddd"
    },
    {
      "constant": false,
      "inputs": [
        {
          "name": "from",
          "type": "address"
        },
        {
          "name": "to",
          "type": "address"
        },
        {
          "name": "tokenId",
          "type": "uint256"
        }
      ],
      "name": "transferFrom",
      "outputs": [],
      "payable": false,
      "stateMutability": "nonpayable",
      "type": "function",
      "signature": "0x23b872dd"
    },
    {
      "constant": false,
      "inputs": [
        {
          "name": "_myid",
          "type": "bytes32"
        },
        {
          "name": "_result",
          "type": "string"
        }
      ],
      "name": "__callback",
      "outputs": [],
      "payable": false,
      "stateMutability": "nonpayable",
      "type": "function",
      "signature": "0x27dc297e"
    },
    {
      "constant": true,
      "inputs": [
        {
          "name": "owner",
          "type": "address"
        },
        {
          "name": "index",
          "type": "uint256"
        }
      ],
      "name": "tokenOfOwnerByIndex",
      "outputs": [
        {
          "name": "",
          "type": "uint256"
        }
      ],
      "payable": false,
      "stateMutability": "view",
      "type": "function",
      "signature": "0x2f745c59"
    },
    {
      "constant": false,
      "inputs": [
        {
          "name": "_myid",
          "type": "bytes32"
        },
        {
          "name": "_result",
          "type": "string"
        },
        {
          "name": "_proof",
          "type": "bytes"
        }
      ],
      "name": "__callback",
      "outputs": [],
      "payable": false,
      "stateMutability": "nonpayable",
      "type": "function",
      "signature": "0x38bbfa50"
    },
    {
      "constant": false,
      "inputs": [
        {
          "name": "from",
          "type": "address"
        },
        {
          "name": "to",
          "type": "address"
        },
        {
          "name": "tokenId",
          "type": "uint256"
        }
      ],
      "name": "safeTransferFrom",
      "outputs": [],
      "payable": false,
      "stateMutability": "nonpayable",
      "type": "function",
      "signature": "0x42842e0e"
    },
    {
      "constant": true,
      "inputs": [
        {
          "name": "index",
          "type": "uint256"
        }
      ],
      "name": "tokenByIndex",
      "outputs": [
        {
          "name": "",
          "type": "uint256"
        }
      ],
      "payable": false,
      "stateMutability": "view",
      "type": "function",
      "signature": "0x4f6ccce7"
    },
    {
      "constant": true,
      "inputs": [
        {
          "name": "tokenId",
          "type": "uint256"
        }
      ],
      "name": "ownerOf",
      "outputs": [
        {
          "name": "",
          "type": "address"
        }
      ],
      "payable": false,
      "stateMutability": "view",
      "type": "function",
      "signature": "0x6352211e"
    },
    {
      "constant": true,
      "inputs": [
        {
          "name": "owner",
          "type": "address"
        }
      ],
      "name": "balanceOf",
      "outputs": [
        {
          "name": "",
          "type": "uint256"
        }
      ],
      "payable": false,
      "stateMutability": "view",
      "type": "function",
      "signature": "0x70a08231"
    },
    {
      "constant": true,
      "inputs": [],
      "name": "getOwner",
      "outputs": [
        {
          "name": "",
          "type": "address"
        }
      ],
      "payable": false,
      "stateMutability": "view",
      "type": "function",
      "signature": "0x893d20e8"
    },
    {
      "constant": true,
      "inputs": [],
      "name": "symbol",
      "outputs": [
        {
          "name": "",
          "type": "string"
        }
      ],
      "payable": false,
      "stateMutability": "view",
      "type": "function",
      "signature": "0x95d89b41"
    },
    {
      "constant": false,
      "inputs": [
        {
          "name": "to",
          "type": "address"
        },
        {
          "name": "approved",
          "type": "bool"
        }
      ],
      "name": "setApprovalForAll",
      "outputs": [],
      "payable": false,
      "stateMutability": "nonpayable",
      "type": "function",
      "signature": "0xa22cb465"
    },
    {
      "constant": false,
      "inputs": [
        {
          "name": "from",
          "type": "address"
        },
        {
          "name": "to",
          "type": "address"
        },
        {
          "name": "tokenId",
          "type": "uint256"
        },
        {
          "name": "_data",
          "type": "bytes"
        }
      ],
      "name": "safeTransferFrom",
      "outputs": [],
      "payable": false,
      "stateMutability": "nonpayable",
      "type": "function",
      "signature": "0xb88d4fde"
    },
    {
      "constant": true,
      "inputs": [
        {
          "name": "tokenId",
          "type": "uint256"
        }
      ],
      "name": "tokenURI",
      "outputs": [
        {
          "name": "",
          "type": "string"
        }
      ],
      "payable": false,
      "stateMutability": "view",
      "type": "function",
      "signature": "0xc87b56dd"
    },
    {
      "constant": false,
      "inputs": [
        {
          "name": "to",
          "type": "address"
        },
        {
          "name": "tokenId",
          "type": "uint256"
        },
        {
          "name": "tokenURI",
          "type": "string"
        }
      ],
      "name": "mint",
      "outputs": [
        {
          "name": "",
          "type": "bool"
        }
      ],
      "payable": false,
      "stateMutability": "nonpayable",
      "type": "function",
      "signature": "0xd3fc9864"
    },
    {
      "constant": true,
      "inputs": [],
      "name": "baseTokenURI",
      "outputs": [
        {
          "name": "",
          "type": "string"
        }
      ],
      "payable": false,
      "stateMutability": "view",
      "type": "function",
      "signature": "0xd547cfb7"
    },
    {
      "constant": true,
      "inputs": [
        {
          "name": "owner",
          "type": "address"
        },
        {
          "name": "operator",
          "type": "address"
        }
      ],
      "name": "isApprovedForAll",
      "outputs": [
        {
          "name": "",
          "type": "bool"
        }
      ],
      "payable": false,
      "stateMutability": "view",
      "type": "function",
      "signature": "0xe985e9c5"
    },
    {
      "constant": false,
      "inputs": [
        {
          "name": "newOwner",
          "type": "address"
        }
      ],
      "name": "transferOwnership",
      "outputs": [],
      "payable": false,
      "stateMutability": "nonpayable",
      "type": "function",
      "signature": "0xf2fde38b"
    },
    {
      "constant": false,
      "inputs": [
        {
          "name": "a",
          "type": "uint256[2]"
        },
        {
          "name": "a_p",
          "type": "uint256[2]"
        },
        {
          "name": "b",
          "type": "uint256[2][2]"
        },
        {
          "name": "b_p",
          "type": "uint256[2]"
        },
        {
          "name": "c",
          "type": "uint256[2]"
        },
        {
          "name": "c_p",
          "type": "uint256[2]"
        },
        {
          "name": "h",
          "type": "uint256[2]"
        },
        {
          "name": "k",
          "type": "uint256[2]"
        },
        {
          "name": "input",
          "type": "uint256[2]"
        }
      ],
      "name": "verifyTx",
      "outputs": [
        {
          "name": "r",
          "type": "bool"
        }
      ],
      "payable": false,
      "stateMutability": "nonpayable",
      "type": "function",
      "signature": "0xfe01ff62"
    },
    {
      "anonymous": false,
      "inputs": [
        {
          "indexed": false,
          "name": "owner",
          "type": "address"
        },
        {
          "indexed": false,
          "name": "tokenId",
          "type": "uint256"
        }
      ],
      "name": "SolutionAdded",
      "type": "event",
      "signature": "0x3a01cc868bdb36c1d9b8a262a8ad25064b23ac175b3f8e4453f1daf8ff6bac0d"
    },
    {
      "anonymous": false,
      "inputs": [
        {
          "indexed": false,
          "name": "s",
          "type": "string"
        }
      ],
      "name": "Verified",
      "type": "event",
      "signature": "0x3f3cfdb26fb5f9f1786ab4f1a1f9cd4c0b5e726cbdfc26e495261731aad44e39"
    },
    {
      "anonymous": false,
      "inputs": [
        {
          "indexed": true,
          "name": "from",
          "type": "address"
        },
        {
          "indexed": true,
          "name": "to",
          "type": "address"
        },
        {
          "indexed": true,
          "name": "tokenId",
          "type": "uint256"
        }
      ],
      "name": "Transfer",
      "type": "event",
      "signature": "0xddf252ad1be2c89b69c2b068fc378daa952ba7f163c4a11628f55a4df523b3ef"
    },
    {
      "anonymous": false,
      "inputs": [
        {
          "indexed": true,
          "name": "owner",
          "type": "address"
        },
        {
          "indexed": true,
          "name": "approved",
          "type": "address"
        },
        {
          "indexed": true,
          "name": "tokenId",
          "type": "uint256"
        }
      ],
      "name": "Approval",
      "type": "event",
      "signature": "0x8c5be1e5ebec7d5bd14f71427d1e84f3dd0314c0f7b2291e5b200ac8c7c3b925"
    },
    {
      "anonymous": false,
      "inputs": [
        {
          "indexed": true,
          "name": "owner",
          "type": "address"
        },
        {
          "indexed": true,
          "name": "operator",
          "type": "address"
        },
        {
          "indexed": false,
          "name": "approved",
          "type": "bool"
        }
      ],
      "name": "ApprovalForAll",
      "type": "event",
      "signature": "0x17307eab39ab6107e8899845ad3d59bd9653f200f220920489ca2b5937696c31"
    },
    {
      "anonymous": false,
      "inputs": [
        {
          "indexed": true,
          "name": "account",
          "type": "address"
        }
      ],
      "name": "Paused",
      "type": "event",
      "signature": "0x62e78cea01bee320cd4e420270b5ea74000d11b0c9f74754ebdbfc544b05a258"
    },
    {
      "anonymous": false,
      "inputs": [
        {
          "indexed": true,
          "name": "account",
          "type": "address"
        }
      ],
      "name": "Unpaused",
      "type": "event",
      "signature": "0x5db9ee0a495bf2e6ff9c91a7834c1ba4fdd244a5e8aa4e537bd38aeae4b073aa"
    },
    {
      "anonymous": false,
      "inputs": [
        {
          "indexed": true,
          "name": "oldOwner",
          "type": "address"
        },
        {
          "indexed": true,
          "name": "newOwner",
          "type": "address"
        }
      ],
      "name": "TransferOwnership",
      "type": "event",
      "signature": "0x5c486528ec3e3f0ea91181cff8116f02bfa350e03b8b6f12e00765adbb5af85c"
    },
    {
      "constant": false,
      "inputs": [
        {
          "name": "owner",
          "type": "address"
        },
        {
          "name": "tokenId",
          "type": "uint256"
        },
        {
          "name": "unique",
          "type": "bytes32"
        }
      ],
      "name": "addUniqueSolution",
      "outputs": [],
      "payable": false,
      "stateMutability": "nonpayable",
      "type": "function",
      "signature": "0xa8f18c4d"
    },
    {
      "constant": false,
      "inputs": [
        {
          "name": "owner",
          "type": "address"
        },
        {
          "name": "tokenId",
          "type": "uint256"
        },
        {
          "name": "tokenURI",
          "type": "string"
        },
        {
          "name": "a",
          "type": "uint256[2]"
        },
        {
          "name": "a_p",
          "type": "uint256[2]"
        },
        {
          "name": "b",
          "type": "uint256[2][2]"
        },
        {
          "name": "b_p",
          "type": "uint256[2]"
        },
        {
          "name": "c",
          "type": "uint256[2]"
        },
        {
          "name": "c_p",
          "type": "uint256[2]"
        },
        {
          "name": "h",
          "type": "uint256[2]"
        },
        {
          "name": "k",
          "type": "uint256[2]"
        },
        {
          "name": "input",
          "type": "uint256[2]"
        }
      ],
      "name": "mintNFT",
      "outputs": [
        {
          "name": "",
          "type": "bool"
        }
      ],
      "payable": false,
      "stateMutability": "nonpayable",
      "type": "function",
      "signature": "0xa8e88741"
    }
  ],
  "bytecode": "0x60806040526040805190810160405280600c81526020017f4172616269616e20436f696e00000000000000000000000000000000000000008152506040805190810160405280600481526020017f4152424f00000000000000000000000000000000000000000000000000000000815250606060405190810160405280603f8152602001620054d9603f9139336000806101000a81548173ffffffffffffffffffffffffffffffffffffffff021916908373ffffffffffffffffffffffffffffffffffffffff1602179055506000809054906101000a900473ffffffffffffffffffffffffffffffffffffffff1673ffffffffffffffffffffffffffffffffffffffff16600073ffffffffffffffffffffffffffffffffffffffff167f5c486528ec3e3f0ea91181cff8116f02bfa350e03b8b6f12e00765adbb5af85c60405160405180910390a360008060146101000a81548160ff0219169083151502179055506200019e6301ffc9a77c010000000000000000000000000000000000000000000000000000000002620002a9640100000000026401000000009004565b620001db6380ac58cd7c010000000000000000000000000000000000000000000000000000000002620002a9640100000000026401000000009004565b6200021863780e9d637c010000000000000000000000000000000000000000000000000000000002620002a9640100000000026401000000009004565b82600f90805190602001906200023092919062000367565b5081601090805190602001906200024992919062000367565b5080601190805190602001906200026292919062000367565b50620002a0635b5e139f7c010000000000000000000000000000000000000000000000000000000002620002a9640100000000026401000000009004565b50505062000416565b63ffffffff7c010000000000000000000000000000000000000000000000000000000002817bffffffffffffffffffffffffffffffffffffffffffffffffffffffff191614151515620002fb57600080fd5b6001806000837bffffffffffffffffffffffffffffffffffffffffffffffffffffffff19167bffffffffffffffffffffffffffffffffffffffffffffffffffffffff1916815260200190815260200160002060006101000a81548160ff02191690831515021790555050565b828054600181600116156101000203166002900490600052602060002090601f016020900481019282601f10620003aa57805160ff1916838001178555620003db565b82800160010185558215620003db579182015b82811115620003da578251825591602001919060010190620003bd565b5b509050620003ea9190620003ee565b5090565b6200041391905b808211156200040f576000816000905550600101620003f5565b5090565b90565b6150b380620004266000396000f3fe608060405234801561001057600080fd5b50600436106101ab576000357c01000000000000000000000000000000000000000000000000000000009004806370a08231116100fb578063b88d4fde116100b4578063d547cfb71161008e578063d547cfb714610fa6578063e985e9c514611029578063f2fde38b146110a5578063fe01ff62146110e9576101ab565b8063b88d4fde14610cfd578063c87b56dd14610e02578063d3fc986414610ea9576101ab565b806370a08231146107b1578063893d20e81461080957806395d89b4114610853578063a22cb465146108d6578063a8e8874114610926578063a8f18c4d14610ca5576101ab565b806323b872dd1161016857806338bbfa501161014257806338bbfa501461053757806342842e0e146106935780634f6ccce7146107015780636352211e14610743576101ab565b806323b872dd146103a257806327dc297e146104105780632f745c59146104d5576101ab565b806301ffc9a7146101b057806306fdde0314610215578063081812fc14610298578063095ea7b31461030657806316c38b3c1461035457806318160ddd14610384575b600080fd5b6101fb600480360360208110156101c657600080fd5b8101908080357bffffffffffffffffffffffffffffffffffffffffffffffffffffffff191690602001909291905050506113a7565b604051808215151515815260200191505060405180910390f35b61021d61140f565b6040518080602001828103825283818151815260200191508051906020019080838360005b8381101561025d578082015181840152602081019050610242565b50505050905090810190601f16801561028a5780820380516001836020036101000a031916815260200191505b509250505060405180910390f35b6102c4600480360360208110156102ae57600080fd5b81019080803590602001909291905050506114b1565b604051808273ffffffffffffffffffffffffffffffffffffffff1673ffffffffffffffffffffffffffffffffffffffff16815260200191505060405180910390f35b6103526004803603604081101561031c57600080fd5b81019080803573ffffffffffffffffffffffffffffffffffffffff1690602001909291908035906020019092919050505061156b565b005b6103826004803603602081101561036a57600080fd5b81019080803515159060200190929190505050611739565b005b61038c6117fd565b6040518082815260200191505060405180910390f35b61040e600480360360608110156103b857600080fd5b81019080803573ffffffffffffffffffffffffffffffffffffffff169060200190929190803573ffffffffffffffffffffffffffffffffffffffff1690602001909291908035906020019092919050505061180a565b005b6104d36004803603604081101561042657600080fd5b81019080803590602001909291908035906020019064010000000081111561044d57600080fd5b82018360208201111561045f57600080fd5b8035906020019184600183028401116401000000008311171561048157600080fd5b91908080601f016020809104026020016040519081016040528093929190818152602001838380828437600081840152601f19601f82011690508083019250505050505050919291929050505061182f565b005b610521600480360360408110156104eb57600080fd5b81019080803573ffffffffffffffffffffffffffffffffffffffff16906020019092919080359060200190929190505050611872565b6040518082815260200191505060405180910390f35b6106916004803603606081101561054d57600080fd5b81019080803590602001909291908035906020019064010000000081111561057457600080fd5b82018360208201111561058657600080fd5b803590602001918460018302840111640100000000831117156105a857600080fd5b91908080601f016020809104026020016040519081016040528093929190818152602001838380828437600081840152601f19601f8201169050808301925050505050505091929192908035906020019064010000000081111561060b57600080fd5b82018360208201111561061d57600080fd5b8035906020019184600183028401116401000000008311171561063f57600080fd5b91908080601f016020809104026020016040519081016040528093929190818152602001838380828437600081840152601f19601f8201169050808301925050505050505091929192905050506118e9565b005b6106ff600480360360608110156106a957600080fd5b81019080803573ffffffffffffffffffffffffffffffffffffffff169060200190929190803573ffffffffffffffffffffffffffffffffffffffff169060200190929190803590602001909291905050506118ee565b005b61072d6004803603602081101561071757600080fd5b810190808035906020019092919050505061190f565b6040518082815260200191505060405180910390f35b61076f6004803603602081101561075957600080fd5b8101908080359060200190929190505050611947565b604051808273ffffffffffffffffffffffffffffffffffffffff1673ffffffffffffffffffffffffffffffffffffffff16815260200191505060405180910390f35b6107f3600480360360208110156107c757600080fd5b81019080803573ffffffffffffffffffffffffffffffffffffffff169060200190929190505050611984565b6040518082815260200191505060405180910390f35b6108116119d4565b604051808273ffffffffffffffffffffffffffffffffffffffff1673ffffffffffffffffffffffffffffffffffffffff16815260200191505060405180910390f35b61085b6119fd565b6040518080602001828103825283818151815260200191508051906020019080838360005b8381101561089b578082015181840152602081019050610880565b50505050905090810190601f1680156108c85780820380516001836020036101000a031916815260200191505b509250505060405180910390f35b610924600480360360408110156108ec57600080fd5b81019080803573ffffffffffffffffffffffffffffffffffffffff169060200190929190803515159060200190929190505050611a9f565b005b610c8b60048036036102e081101561093d57600080fd5b81019080803573ffffffffffffffffffffffffffffffffffffffff169060200190929190803590602001909291908035906020019064010000000081111561098457600080fd5b82018360208201111561099657600080fd5b803590602001918460018302840111640100000000831117156109b857600080fd5b91908080601f016020809104026020016040519081016040528093929190818152602001838380828437600081840152601f19601f82011690508083019250505050505050919291929080604001906002806020026040519081016040528092919082600260200280828437600081840152601f19601f820116905080830192505050505050919291929080604001906002806020026040519081016040528092919082600260200280828437600081840152601f19601f82011690508083019250505050505091929192908060800190600280602002604051908101604052809291906000905b82821015610af4578382604002016002806020026040519081016040528092919082600260200280828437600081840152601f19601f82011690508083019250505050505081526020019060010190610aa0565b50505050919291929080604001906002806020026040519081016040528092919082600260200280828437600081840152601f19601f820116905080830192505050505050919291929080604001906002806020026040519081016040528092919082600260200280828437600081840152601f19601f820116905080830192505050505050919291929080604001906002806020026040519081016040528092919082600260200280828437600081840152601f19601f820116905080830192505050505050919291929080604001906002806020026040519081016040528092919082600260200280828437600081840152601f19601f820116905080830192505050505050919291929080604001906002806020026040519081016040528092919082600260200280828437600081840152601f19601f820116905080830192505050505050919291929080604001906002806020026040519081016040528092919082600260200280828437600081840152601f19601f8201169050808301925050505050509192919290505050611bdb565b604051808215151515815260200191505060405180910390f35b610cfb60048036036060811015610cbb57600080fd5b81019080803573ffffffffffffffffffffffffffffffffffffffff1690602001909291908035906020019092919080359060200190929190505050611f31565b005b610e0060048036036080811015610d1357600080fd5b81019080803573ffffffffffffffffffffffffffffffffffffffff169060200190929190803573ffffffffffffffffffffffffffffffffffffffff1690602001909291908035906020019092919080359060200190640100000000811115610d7a57600080fd5b820183602082011115610d8c57600080fd5b80359060200191846001830284011164010000000083111715610dae57600080fd5b91908080601f016020809104026020016040519081016040528093929190818152602001838380828437600081840152601f19601f82011690508083019250505050505050919291929050505061210d565b005b610e2e60048036036020811015610e1857600080fd5b8101908080359060200190929190505050612135565b6040518080602001828103825283818151815260200191508051906020019080838360005b83811015610e6e578082015181840152602081019050610e53565b50505050905090810190601f168015610e9b5780820380516001836020036101000a031916815260200191505b509250505060405180910390f35b610f8c60048036036060811015610ebf57600080fd5b81019080803573ffffffffffffffffffffffffffffffffffffffff1690602001909291908035906020019092919080359060200190640100000000811115610f0657600080fd5b820183602082011115610f1857600080fd5b80359060200191846001830284011164010000000083111715610f3a57600080fd5b91908080601f016020809104026020016040519081016040528093929190818152602001838380828437600081840152601f19601f8201169050808301925050505050505091929192905050506121fe565b604051808215151515815260200191505060405180910390f35b610fae6122c5565b6040518080602001828103825283818151815260200191508051906020019080838360005b83811015610fee578082015181840152602081019050610fd3565b50505050905090810190601f16801561101b5780820380516001836020036101000a031916815260200191505b509250505060405180910390f35b61108b6004803603604081101561103f57600080fd5b81019080803573ffffffffffffffffffffffffffffffffffffffff169060200190929190803573ffffffffffffffffffffffffffffffffffffffff169060200190929190505050612367565b604051808215151515815260200191505060405180910390f35b6110e7600480360360208110156110bb57600080fd5b81019080803573ffffffffffffffffffffffffffffffffffffffff1690602001909291905050506123fb565b005b61138d600480360361028081101561110057600080fd5b8101908080604001906002806020026040519081016040528092919082600260200280828437600081840152601f19601f820116905080830192505050505050919291929080604001906002806020026040519081016040528092919082600260200280828437600081840152601f19601f82011690508083019250505050505091929192908060800190600280602002604051908101604052809291906000905b828210156111f6578382604002016002806020026040519081016040528092919082600260200280828437600081840152601f19601f820116905080830192505050505050815260200190600101906111a2565b50505050919291929080604001906002806020026040519081016040528092919082600260200280828437600081840152601f19601f820116905080830192505050505050919291929080604001906002806020026040519081016040528092919082600260200280828437600081840152601f19601f820116905080830192505050505050919291929080604001906002806020026040519081016040528092919082600260200280828437600081840152601f19601f820116905080830192505050505050919291929080604001906002806020026040519081016040528092919082600260200280828437600081840152601f19601f820116905080830192505050505050919291929080604001906002806020026040519081016040528092919082600260200280828437600081840152601f19601f820116905080830192505050505050919291929080604001906002806020026040519081016040528092919082600260200280828437600081840152601f19601f8201169050808301925050505050509192919290505050612605565b604051808215151515815260200191505060405180910390f35b600060016000837bffffffffffffffffffffffffffffffffffffffffffffffffffffffff19167bffffffffffffffffffffffffffffffffffffffffffffffffffffffff1916815260200190815260200160002060009054906101000a900460ff169050919050565b6060600f8054600181600116156101000203166002900480601f0160208091040260200160405190810160405280929190818152602001828054600181600116156101000203166002900480156114a75780601f1061147c576101008083540402835291602001916114a7565b820191906000526020600020905b81548152906001019060200180831161148a57829003601f168201915b5050505050905090565b60006114bc826129be565b1515611530576040517f08c379a00000000000000000000000000000000000000000000000000000000081526004018080602001828103825260158152602001807f546f6b656e20646f6573206e6f7420657869737421000000000000000000000081525060200191505060405180910390fd5b6003600083815260200190815260200160002060009054906101000a900473ffffffffffffffffffffffffffffffffffffffff169050919050565b61157481611947565b73ffffffffffffffffffffffffffffffffffffffff168273ffffffffffffffffffffffffffffffffffffffff16141515156115fa576040517f08c379a000000000000000000000000000000000000000000000000000000000815260040180806020018281038252602b815260200180614f9a602b913960400191505060405180910390fd5b61160381611947565b73ffffffffffffffffffffffffffffffffffffffff163373ffffffffffffffffffffffffffffffffffffffff16141515611688576040517f08c379a000000000000000000000000000000000000000000000000000000000815260040180806020018281038252602b81526020018061505d602b913960400191505060405180910390fd5b816003600083815260200190815260200160002060006101000a81548173ffffffffffffffffffffffffffffffffffffffff021916908373ffffffffffffffffffffffffffffffffffffffff160217905550808273ffffffffffffffffffffffffffffffffffffffff163373ffffffffffffffffffffffffffffffffffffffff167f8c5be1e5ebec7d5bd14f71427d1e84f3dd0314c0f7b2291e5b200ac8c7c3b92560405160405180910390a45050565b6000809054906101000a900473ffffffffffffffffffffffffffffffffffffffff1673ffffffffffffffffffffffffffffffffffffffff163373ffffffffffffffffffffffffffffffffffffffff161415156117e0576040517f08c379a00000000000000000000000000000000000000000000000000000000081526004018080602001828103825260248152602001806150136024913960400191505060405180910390fd5b80600060146101000a81548160ff02191690831515021790555050565b6000600880549050905090565b6118143382612a30565b151561181f57600080fd5b61182a838383612ac5565b505050565b61186e828260006040519080825280601f01601f1916602001820160405280156118685781602001600182028038833980820191505090505b506118e9565b5050565b600061187d83611984565b8210151561188a57600080fd5b600660008473ffffffffffffffffffffffffffffffffffffffff1673ffffffffffffffffffffffffffffffffffffffff168152602001908152602001600020828154811015156118d657fe5b9060005260206000200154905092915050565b505050565b61190a838383602060405190810160405280600081525061210d565b505050565b60006119196117fd565b8210151561192657600080fd5b60088281548110151561193557fe5b90600052602060002001549050919050565b60006002600083815260200190815260200160002060009054906101000a900473ffffffffffffffffffffffffffffffffffffffff169050919050565b60006119cd600460008473ffffffffffffffffffffffffffffffffffffffff1673ffffffffffffffffffffffffffffffffffffffff168152602001908152602001600020612ae9565b9050919050565b60008060009054906101000a900473ffffffffffffffffffffffffffffffffffffffff16905090565b606060108054600181600116156101000203166002900480601f016020809104026020016040519081016040528092919081815260200182805460018160011615610100020316600290048015611a955780601f10611a6a57610100808354040283529160200191611a95565b820191906000526020600020905b815481529060010190602001808311611a7857829003601f168201915b5050505050905090565b3373ffffffffffffffffffffffffffffffffffffffff168273ffffffffffffffffffffffffffffffffffffffff1614151515611ada57600080fd5b80600560003373ffffffffffffffffffffffffffffffffffffffff1673ffffffffffffffffffffffffffffffffffffffff16815260200190815260200160002060008473ffffffffffffffffffffffffffffffffffffffff1673ffffffffffffffffffffffffffffffffffffffff16815260200190815260200160002060006101000a81548160ff0219169083151502179055508173ffffffffffffffffffffffffffffffffffffffff163373ffffffffffffffffffffffffffffffffffffffff167f17307eab39ab6107e8899845ad3d59bd9653f200f220920489ca2b5937696c3183604051808215151515815260200191505060405180910390a35050565b60008060009054906101000a900473ffffffffffffffffffffffffffffffffffffffff1673ffffffffffffffffffffffffffffffffffffffff163373ffffffffffffffffffffffffffffffffffffffff16141515611c84576040517f08c379a00000000000000000000000000000000000000000000000000000000081526004018080602001828103825260248152602001806150136024913960400191505060405180910390fd5b6000611c978b8b8b8b8b8b8b8b8b612605565b9050801515611d0e576040517f08c379a00000000000000000000000000000000000000000000000000000000081526004018080602001828103825260168152602001807f536f6c7574696f6e206973206e6f742076616c6964210000000000000000000081525060200191505060405180910390fd5b60008b8b8b8b8b8b8b8b8b604051602001808a600260200280838360005b83811015611d47578082015181840152602081019050611d2c565b5050505090500189600260200280838360005b83811015611d75578082015181840152602081019050611d5a565b505050509050018860026000925b81841015611dc95782846020020151600260200280838360005b83811015611db8578082015181840152602081019050611d9d565b505050509050019260010192611d83565b9250505087600260200280838360005b83811015611df4578082015181840152602081019050611dd9565b5050505090500186600260200280838360005b83811015611e22578082015181840152602081019050611e07565b5050505090500185600260200280838360005b83811015611e50578082015181840152602081019050611e35565b5050505090500184600260200280838360005b83811015611e7e578082015181840152602081019050611e63565b5050505090500183600260200280838360005b83811015611eac578082015181840152602081019050611e91565b5050505090500182600260200280838360005b83811015611eda578082015181840152602081019050611ebf565b505050509050019950505050505050505050604051602081830303815290604052805190602001209050611f0f8f8f83611f31565b611f1a8f8f8f6121fe565b506001925050509c9b505050505050505050505050565b600073ffffffffffffffffffffffffffffffffffffffff166014600083815260200190815260200160002060010160009054906101000a900473ffffffffffffffffffffffffffffffffffffffff1673ffffffffffffffffffffffffffffffffffffffff1614151561200b576040517f08c379a00000000000000000000000000000000000000000000000000000000081526004018080602001828103825260188152602001807f536f6c7574696f6e2065786973747320616c726561647921000000000000000081525060200191505060405180910390fd5b60408051908101604052808381526020018473ffffffffffffffffffffffffffffffffffffffff16815250601460008381526020019081526020016000206000820151816000015560208201518160010160006101000a81548173ffffffffffffffffffffffffffffffffffffffff021916908373ffffffffffffffffffffffffffffffffffffffff1602179055509050507f3a01cc868bdb36c1d9b8a262a8ad25064b23ac175b3f8e4453f1daf8ff6bac0d8383604051808373ffffffffffffffffffffffffffffffffffffffff1673ffffffffffffffffffffffffffffffffffffffff1681526020018281526020019250505060405180910390a1505050565b61211884848461180a565b61212484848484612af7565b151561212f57600080fd5b50505050565b6060612140826129be565b151561214b57600080fd5b601260008381526020019081526020016000208054600181600116156101000203166002900480601f0160208091040260200160405190810160405280929190818152602001828054600181600116156101000203166002900480156121f25780601f106121c7576101008083540402835291602001916121f2565b820191906000526020600020905b8154815290600101906020018083116121d557829003601f168201915b50505050509050919050565b60008060009054906101000a900473ffffffffffffffffffffffffffffffffffffffff1673ffffffffffffffffffffffffffffffffffffffff163373ffffffffffffffffffffffffffffffffffffffff161415156122a7576040517f08c379a00000000000000000000000000000000000000000000000000000000081526004018080602001828103825260248152602001806150136024913960400191505060405180910390fd5b6122b18484612d1a565b6122ba83612d3b565b600190509392505050565b606060118054600181600116156101000203166002900480601f01602080910402602001604051908101604052809291908181526020018280546001816001161561010002031660029004801561235d5780601f106123325761010080835404028352916020019161235d565b820191906000526020600020905b81548152906001019060200180831161234057829003601f168201915b5050505050905090565b6000600560008473ffffffffffffffffffffffffffffffffffffffff1673ffffffffffffffffffffffffffffffffffffffff16815260200190815260200160002060008373ffffffffffffffffffffffffffffffffffffffff1673ffffffffffffffffffffffffffffffffffffffff16815260200190815260200160002060009054906101000a900460ff16905092915050565b6000809054906101000a900473ffffffffffffffffffffffffffffffffffffffff1673ffffffffffffffffffffffffffffffffffffffff163373ffffffffffffffffffffffffffffffffffffffff161415156124a2576040517f08c379a00000000000000000000000000000000000000000000000000000000081526004018080602001828103825260248152602001806150136024913960400191505060405180910390fd5b600073ffffffffffffffffffffffffffffffffffffffff168173ffffffffffffffffffffffffffffffffffffffff1614151515612547576040517f08c379a000000000000000000000000000000000000000000000000000000000815260040180806020018281038252601c8152602001807f4e6577206f776e6572206d75737420626520616e20616464726573730000000081525060200191505060405180910390fd5b8073ffffffffffffffffffffffffffffffffffffffff166000809054906101000a900473ffffffffffffffffffffffffffffffffffffffff1673ffffffffffffffffffffffffffffffffffffffff167f5c486528ec3e3f0ea91181cff8116f02bfa350e03b8b6f12e00765adbb5af85c60405160405180910390a3806000806101000a81548173ffffffffffffffffffffffffffffffffffffffff021916908373ffffffffffffffffffffffffffffffffffffffff16021790555050565b600061260f614cd5565b60408051908101604052808c600060028110151561262957fe5b602002015181526020018c600160028110151561264257fe5b6020020151815250816000018190525060408051908101604052808b600060028110151561266c57fe5b602002015181526020018b600160028110151561268557fe5b60200201518152508160200181905250604080519081016040528060408051908101604052808c60006002811015156126ba57fe5b602002015160006002811015156126cd57fe5b602002015181526020018c60006002811015156126e657fe5b602002015160016002811015156126f957fe5b6020020151815250815260200160408051908101604052808c600160028110151561272057fe5b6020020151600060028110151561273357fe5b602002015181526020018c600160028110151561274c57fe5b6020020151600160028110151561275f57fe5b60200201518152508152508160400181905250604080519081016040528089600060028110151561278c57fe5b602002015181526020018960016002811015156127a557fe5b6020020151815250816060018190525060408051908101604052808860006002811015156127cf57fe5b602002015181526020018860016002811015156127e857fe5b60200201518152508160800181905250604080519081016040528087600060028110151561281257fe5b6020020151815260200187600160028110151561282b57fe5b60200201518152508160a00181905250604080519081016040528086600060028110151561285557fe5b6020020151815260200186600160028110151561286e57fe5b60200201518152508160e00181905250604080519081016040528085600060028110151561289857fe5b602002015181526020018560016002811015156128b157fe5b60200201518152508160c00181905250606060026040519080825280602002602001820160405280156128f35781602001602082028038833980820191505090505b50905060008090505b600281101561294157848160028110151561291357fe5b6020020151828281518110151561292657fe5b906020019060200201818152505080806001019150506128fc565b50600061294e8284612e94565b14156129aa577f3f3cfdb26fb5f9f1786ab4f1a1f9cd4c0b5e726cbdfc26e495261731aad44e39604051808060200182810382526022815260200180614ff16022913960400191505060405180910390a16001925050506129b1565b6000925050505b9998505050505050505050565b6000806002600084815260200190815260200160002060009054906101000a900473ffffffffffffffffffffffffffffffffffffffff169050600073ffffffffffffffffffffffffffffffffffffffff168173ffffffffffffffffffffffffffffffffffffffff161415915050919050565b600080612a3c83611947565b90508073ffffffffffffffffffffffffffffffffffffffff168473ffffffffffffffffffffffffffffffffffffffff161480612aab57508373ffffffffffffffffffffffffffffffffffffffff16612a93846114b1565b73ffffffffffffffffffffffffffffffffffffffff16145b80612abc5750612abb8185612367565b5b91505092915050565b612ad08383836130d4565b612ada8382613333565b612ae482826134d7565b505050565b600081600001549050919050565b6000612b188473ffffffffffffffffffffffffffffffffffffffff1661359e565b1515612b275760019050612d12565b60008473ffffffffffffffffffffffffffffffffffffffff1663150b7a02338887876040518563ffffffff167c0100000000000000000000000000000000000000000000000000000000028152600401808573ffffffffffffffffffffffffffffffffffffffff1673ffffffffffffffffffffffffffffffffffffffff1681526020018473ffffffffffffffffffffffffffffffffffffffff1673ffffffffffffffffffffffffffffffffffffffff16815260200183815260200180602001828103825283818151815260200191508051906020019080838360005b83811015612c1e578082015181840152602081019050612c03565b50505050905090810190601f168015612c4b5780820380516001836020036101000a031916815260200191505b5095505050505050602060405180830381600087803b158015612c6d57600080fd5b505af1158015612c81573d6000803e3d6000fd5b505050506040513d6020811015612c9757600080fd5b8101908080519060200190929190505050905063150b7a027c0100000000000000000000000000000000000000000000000000000000027bffffffffffffffffffffffffffffffffffffffffffffffffffffffff1916817bffffffffffffffffffffffffffffffffffffffffffffffffffffffff1916149150505b949350505050565b612d2482826135b1565b612d2e82826134d7565b612d37816137cd565b5050565b612d44816129be565b1515612db8576040517f08c379a00000000000000000000000000000000000000000000000000000000081526004018080602001828103825260128152602001807f546f6b656e206d7573742065786973747321000000000000000000000000000081525060200191505060405180910390fd5b6060612e6660118054600181600116156101000203166002900480601f016020809104026020016040519081016040528092919081815260200182805460018160011615610100020316600290048015612e535780601f10612e2857610100808354040283529160200191612e53565b820191906000526020600020905b815481529060010190602001808311612e3657829003601f168201915b5050505050612e6184613819565b613972565b905080601260008481526020019081526020016000209080519060200190612e8f929190614d4b565b505050565b6000612e9e614dcb565b612ea66139b9565b90508060e00151516001855101141515612ebf57600080fd5b612ec7614e3b565b6040805190810160405280600081526020016000815250905060008090505b8551811015612f4657612f3782612f328560e0015160018501815181101515612f0b57fe5b906020019060200201518985815181101515612f2357fe5b90602001906020020151613ff9565b614095565b91508080600101915050612ee6565b50612f6d818360e001516000815181101515612f5e57fe5b90602001906020020151614095565b9050612f9684600001518360000151612f898760200151614152565b612f916141ee565b6142b8565b1515612fa7576001925050506130ce565b612fce82602001518560400151612fc18760600151614152565b612fc96141ee565b6142b8565b1515612fdf576002925050506130ce565b61300684608001518360400151612ff98760a00151614152565b6130016141ee565b6142b8565b1515613017576003925050506130ce565b6130638460c0015183606001516130476130428561303d8a600001518b60800151614095565b614095565b614152565b8560a001516130598760800151614152565b89604001516143c4565b1515613074576004925050506130ce565b6130b6613085828660000151614095565b85604001516130978760e00151614152565b8560c001516130a98960800151614152565b6130b16141ee565b6143c4565b15156130c7576005925050506130ce565b6000925050505b92915050565b6130dd81611947565b73ffffffffffffffffffffffffffffffffffffffff168373ffffffffffffffffffffffffffffffffffffffff16141515613162576040517f08c379a00000000000000000000000000000000000000000000000000000000081526004018080602001828103825260268152602001806150376026913960400191505060405180910390fd5b600073ffffffffffffffffffffffffffffffffffffffff168273ffffffffffffffffffffffffffffffffffffffff16141515156131ea576040517f08c379a000000000000000000000000000000000000000000000000000000000815260040180806020018281038252602c815260200180614fc5602c913960400191505060405180910390fd5b6131f38161450c565b61323a600460008573ffffffffffffffffffffffffffffffffffffffff1673ffffffffffffffffffffffffffffffffffffffff1681526020019081526020016000206145cc565b613281600460008473ffffffffffffffffffffffffffffffffffffffff1673ffffffffffffffffffffffffffffffffffffffff1681526020019081526020016000206145ef565b816002600083815260200190815260200160002060006101000a81548173ffffffffffffffffffffffffffffffffffffffff021916908373ffffffffffffffffffffffffffffffffffffffff160217905550808273ffffffffffffffffffffffffffffffffffffffff168473ffffffffffffffffffffffffffffffffffffffff167fddf252ad1be2c89b69c2b068fc378daa952ba7f163c4a11628f55a4df523b3ef60405160405180910390a4505050565b600061338b6001600660008673ffffffffffffffffffffffffffffffffffffffff1673ffffffffffffffffffffffffffffffffffffffff1681526020019081526020016000208054905061460590919063ffffffff16565b9050600060076000848152602001908152602001600020549050818114151561347e576000600660008673ffffffffffffffffffffffffffffffffffffffff1673ffffffffffffffffffffffffffffffffffffffff168152602001908152602001600020838154811015156133fc57fe5b9060005260206000200154905080600660008773ffffffffffffffffffffffffffffffffffffffff1673ffffffffffffffffffffffffffffffffffffffff1681526020019081526020016000208381548110151561345657fe5b9060005260206000200181905550816007600083815260200190815260200160002081905550505b600660008573ffffffffffffffffffffffffffffffffffffffff1673ffffffffffffffffffffffffffffffffffffffff1681526020019081526020016000208054809190600190036134d09190614e55565b5050505050565b600660008373ffffffffffffffffffffffffffffffffffffffff1673ffffffffffffffffffffffffffffffffffffffff168152602001908152602001600020805490506007600083815260200190815260200160002081905550600660008373ffffffffffffffffffffffffffffffffffffffff1673ffffffffffffffffffffffffffffffffffffffff1681526020019081526020016000208190806001815401808255809150509060018203906000526020600020016000909192909190915055505050565b600080823b905060008111915050919050565b6135ba816129be565b15151561362f576040517f08c379a00000000000000000000000000000000000000000000000000000000081526004018080602001828103825260148152602001807f546f6b656e20616c72656164792065786973747300000000000000000000000081525060200191505060405180910390fd5b600073ffffffffffffffffffffffffffffffffffffffff168273ffffffffffffffffffffffffffffffffffffffff16141515156136d4576040517f08c379a000000000000000000000000000000000000000000000000000000000815260040180806020018281038252601b8152602001807f50726f7669646564206164647265737320697320696e76616c6964000000000081525060200191505060405180910390fd5b816002600083815260200190815260200160002060006101000a81548173ffffffffffffffffffffffffffffffffffffffff021916908373ffffffffffffffffffffffffffffffffffffffff16021790555061376d600460008473ffffffffffffffffffffffffffffffffffffffff1673ffffffffffffffffffffffffffffffffffffffff1681526020019081526020016000206145ef565b808273ffffffffffffffffffffffffffffffffffffffff16600073ffffffffffffffffffffffffffffffffffffffff167fddf252ad1be2c89b69c2b068fc378daa952ba7f163c4a11628f55a4df523b3ef60405160405180910390a45050565b6008805490506009600083815260200190815260200160002081905550600881908060018154018082558091505090600182039060005260206000200160009091929091909150555050565b60606000821415613861576040805190810160405280600181526020017f3000000000000000000000000000000000000000000000000000000000000000815250905061396d565b600082905060005b60008214151561388f578080600101915050600a8281151561388757fe5b049150613869565b6060816040519080825280601f01601f1916602001820160405280156138c45781602001600182028038833980820191505090505b50905060006001830390505b60008614151561396557600a868115156138e657fe5b066030017f01000000000000000000000000000000000000000000000000000000000000000282828060019003935081518110151561392157fe5b9060200101907effffffffffffffffffffffffffffffffffffffffffffffffffffffffffffff1916908160001a905350600a8681151561395d57fe5b0495506138d0565b819450505050505b919050565b60606139b18383602060405190810160405280600081525060206040519081016040528060008152506020604051908101604052806000815250614627565b905092915050565b6139c1614dcb565b604080519081016040528060408051908101604052807f1f7e12d0458f8252ef47ef81cbfb21881b7879e2887aaf85700ddd18a37ee11081526020017f147a32ee5e8bab27c9f13f305ec307de462ceb0a236a704a27ed39d86754ec29815250815260200160408051908101604052807f0313d493dc0b2c5061f8d326b6286768b1f895ad6f68216cf53156e1e44a47e081526020017f2459408503fa8532c25f864c5a1e75c7e736d4df5f90296da2b3d3d8ac9855a3815250815250816000018190525060408051908101604052807f0f238eb179c6a857dec42864fa987d164f1d6ac2562d7140eb5f0a0e245c284481526020017f0cf4157330e00ca508823858b37d59fb900bd2a8c9aef752ad0646f12a5fbbeb8152508160200181905250604080519081016040528060408051908101604052807f27d7602a1f276eb6ba8acc39c3e030759608e9201b5f364ed5853d205e4696d481526020017f035df74f123f2d172719ddcd42e572ef985d366421417c0258afa809ab7ee869815250815260200160408051908101604052807f280a7edd1689aba4c2f5498d6e1e57a84465594e85b2d63cc18afbce960621d981526020017f14173dfbfba626273d4c4647e4df4f803adfd542d009bee7eaf0100f8dc292758152508152508160400181905250604080519081016040528060408051908101604052807f08c8e940904f26ee177be21e9730c86ee66a537609973155be524f5247ee332181526020017f2a3bf50166a26d859adce8fe5335beb8be35852e45a3c25055f74efe71b7f39d815250815260200160408051908101604052807eff81b76cfbbaa5edf65d1bb6735cad03821379f632412f25bef6cfec1de83c81526020017f2c51fd89c37d342cc1a209845b1c5f107249c6750badb353abfb5c7ecea3b494815250815250816060018190525060408051908101604052807f1e349c4a0cfeb66c5051530288008870321a315c5e571b2571b4f7bb1375432081526020017f2361f2cd7afee1d441c57f94edcffed8400d648261b1ca0e6eec0230e4bcf9ec8152508160800181905250604080519081016040528060408051908101604052807f221df5713ad5fe8bbe8b08ebca56fc0f0a6772a440e392aa02973efd3bf4fbb381526020017f1c65cc68a5c165f43654df988f83180cad953f927ee26a1464924bd6db590b90815250815260200160408051908101604052807f07935a2cad231a9ddf6400258cf4b2b6d00be2dff3419a10dfaf884eeeab852881526020017f12f7ecfdd721a18511d8347dec259276ce35905f7b7de34cf9b79eced0405ab38152508152508160a00181905250604080519081016040528060408051908101604052807f298e2cd84198af907ff672ef912e30d2b61229bd4ab60279f28941d32f32135281526020017f2c5d1f7d1a6a422b6b0e0628500d0bd61baff1027ed2bed25020fec3e6b40f28815250815260200160408051908101604052807f2d3de36c7309002ec42ca7a234936a605d6614dd67d28ded44604274860d006a81526020017f23e2bc1f246d02414660f664989653ad615df27e742ced4727b495d14853a8be8152508152508160c001819052506003604051908082528060200260200182016040528015613e8e57816020015b613e7b614e81565b815260200190600190039081613e735790505b508160e0018190525060408051908101604052807f19420807e55f27aad04c9903e139d93f7f56f3b715377f30409c535ff9df73e681526020017f1834831c74df31112fb916d296cf1060680a5d6d512f976b9bea5f0867d281378152508160e001516000815181101515613eff57fe5b9060200190602002018190525060408051908101604052807f07ca4112ed62735293eaf4e52f677c4c33e303a948c1e00c1681e69013d35a7181526020017f2eb53509f8431316a4c4702a5d4c4234a81fa483ceb1ce9d304464a87631f13e8152508160e001516001815181101515613f7457fe5b9060200190602002018190525060408051908101604052807f09c50801a3990a953785cf7e1f155059563b28a2939410d3da5df429f6f135b081526020017f2e9cf72afabaa192a22564750efe24e82ab93d247888725d00df93aabd1ae1b88152508160e001516002815181101515613fe957fe5b9060200190602002018190525090565b614001614e3b565b614009614e9b565b836000015181600060038110151561401d57fe5b602002018181525050836020015181600160038110151561403a57fe5b6020020181815250508281600260038110151561405357fe5b6020020181815250506000606083608084600060076107d05a03f19050806000811461407e57614080565bfe5b5080151561408d57600080fd5b505092915050565b61409d614e3b565b6140a5614ebe565b83600001518160006004811015156140b957fe5b60200201818152505083602001518160016004811015156140d657fe5b60200201818152505082600001518160026004811015156140f357fe5b602002018181525050826020015181600360048110151561411057fe5b602002018181525050600060608360c084600060066107d05a03f19050806000811461413b5761413d565bfe5b5080151561414a57600080fd5b505092915050565b61415a614e3b565b60007f30644e72e131a029b85045b68181585d97816a916871ca8d3c208c16d87cfd47905060008360000151148015614197575060008360200151145b156141bb5760408051908101604052806000815260200160008152509150506141e9565b6040805190810160405280846000015181526020018285602001518115156141df57fe5b0683038152509150505b919050565b6141f6614ee1565b604080519081016040528060408051908101604052807f198e9393920d483a7260bfb731fb5d25f1aa493335a9e71297e485b7aef312c281526020017f1800deef121f1e76426a00665e5c4479674322d4f75edadd46debd5cd992f6ed815250815260200160408051908101604052807f090689d0585ff075ec9e99ad690c3395bc4b313370b38ef355acdadcd122975b81526020017f12c85ea5db8c6deb4aab71808dcb408fe3d1e7690c43d37b4ce6cc0166fa7daa815250815250905090565b6000606060026040519080825280602002602001820160405280156142f757816020015b6142e4614e81565b8152602001906001900390816142dc5790505b5090506060600260405190808252806020026020018201604052801561433757816020015b614324614f08565b81526020019060019003908161431c5790505b5090508682600081518110151561434a57fe5b906020019060200201819052508482600181518110151561436757fe5b906020019060200201819052508581600081518110151561438457fe5b90602001906020020181905250838160018151811015156143a157fe5b906020019060200201819052506143b88282614a42565b92505050949350505050565b60006060600360405190808252806020026020018201604052801561440357816020015b6143f0614e81565b8152602001906001900390816143e85790505b5090506060600360405190808252806020026020018201604052801561444357816020015b614430614f08565b8152602001906001900390816144285790505b5090508882600081518110151561445657fe5b906020019060200201819052508682600181518110151561447357fe5b906020019060200201819052508482600281518110151561449057fe5b90602001906020020181905250878160008151811015156144ad57fe5b90602001906020020181905250858160018151811015156144ca57fe5b90602001906020020181905250838160028151811015156144e757fe5b906020019060200201819052506144fe8282614a42565b925050509695505050505050565b600073ffffffffffffffffffffffffffffffffffffffff166003600083815260200190815260200160002060009054906101000a900473ffffffffffffffffffffffffffffffffffffffff1673ffffffffffffffffffffffffffffffffffffffff161415156145c95760006003600083815260200190815260200160002060006101000a81548173ffffffffffffffffffffffffffffffffffffffff021916908373ffffffffffffffffffffffffffffffffffffffff1602179055505b50565b6145e46001826000015461460590919063ffffffff16565b816000018190555050565b6001816000016000828254019250508190555050565b600082821115151561461657600080fd5b600082840390508091505092915050565b6060808690506060869050606086905060608690506060869050606081518351855187518951010101016040519080825280601f01601f1916602001820160405280156146835781602001600182028038833980820191505090505b509050606081905060008090506000809050600090505b885181101561474d5788818151811015156146b157fe5b9060200101517f010000000000000000000000000000000000000000000000000000000000000090047f010000000000000000000000000000000000000000000000000000000000000002838380600101945081518110151561471057fe5b9060200101907effffffffffffffffffffffffffffffffffffffffffffffffffffffffffffff1916908160001a905350808060010191505061469a565b600090505b875181101561480557878181518110151561476957fe5b9060200101517f010000000000000000000000000000000000000000000000000000000000000090047f01000000000000000000000000000000000000000000000000000000000000000283838060010194508151811015156147c857fe5b9060200101907effffffffffffffffffffffffffffffffffffffffffffffffffffffffffffff1916908160001a9053508080600101915050614752565b600090505b86518110156148bd57868181518110151561482157fe5b9060200101517f010000000000000000000000000000000000000000000000000000000000000090047f010000000000000000000000000000000000000000000000000000000000000002838380600101945081518110151561488057fe5b9060200101907effffffffffffffffffffffffffffffffffffffffffffffffffffffffffffff1916908160001a905350808060010191505061480a565b600090505b85518110156149755785818151811015156148d957fe5b9060200101517f010000000000000000000000000000000000000000000000000000000000000090047f010000000000000000000000000000000000000000000000000000000000000002838380600101945081518110151561493857fe5b9060200101907effffffffffffffffffffffffffffffffffffffffffffffffffffffffffffff1916908160001a90535080806001019150506148c2565b600090505b8451811015614a2d57848181518110151561499157fe5b9060200101517f010000000000000000000000000000000000000000000000000000000000000090047f01000000000000000000000000000000000000000000000000000000000000000283838060010194508151811015156149f057fe5b9060200101907effffffffffffffffffffffffffffffffffffffffffffffffffffffffffffff1916908160001a905350808060010191505061497a565b82995050505050505050505095945050505050565b600081518351141515614a5457600080fd5b6000835190506000600682029050606081604051908082528060200260200182016040528015614a935781602001602082028038833980820191505090505b50905060008090505b83811015614c71578681815181101515614ab257fe5b90602001906020020151600001518260006006840201815181101515614ad457fe5b90602001906020020181815250508681815181101515614af057fe5b90602001906020020151602001518260016006840201815181101515614b1257fe5b90602001906020020181815250508581815181101515614b2e57fe5b90602001906020020151600001516000600281101515614b4a57fe5b60200201518260026006840201815181101515614b6357fe5b90602001906020020181815250508581815181101515614b7f57fe5b90602001906020020151600001516001600281101515614b9b57fe5b60200201518260036006840201815181101515614bb457fe5b90602001906020020181815250508581815181101515614bd057fe5b90602001906020020151602001516000600281101515614bec57fe5b60200201518260046006840201815181101515614c0557fe5b90602001906020020181815250508581815181101515614c2157fe5b90602001906020020151602001516001600281101515614c3d57fe5b60200201518260056006840201815181101515614c5657fe5b90602001906020020181815250508080600101915050614a9c565b50614c7a614f2f565b60006020826020860260208601600060086107d05a03f190508060008114614ca157614ca3565bfe5b50801515614cb057600080fd5b6000826000600181101515614cc157fe5b602002015114159550505050505092915050565b61024060405190810160405280614cea614e81565b8152602001614cf7614e81565b8152602001614d04614f08565b8152602001614d11614e81565b8152602001614d1e614e81565b8152602001614d2b614e81565b8152602001614d38614e81565b8152602001614d45614e81565b81525090565b828054600181600116156101000203166002900490600052602060002090601f016020900481019282601f10614d8c57805160ff1916838001178555614dba565b82800160010185558215614dba579182015b82811115614db9578251825591602001919060010190614d9e565b5b509050614dc79190614f52565b5090565b61032060405190810160405280614de0614f08565b8152602001614ded614e81565b8152602001614dfa614f08565b8152602001614e07614f08565b8152602001614e14614e81565b8152602001614e21614f08565b8152602001614e2e614f08565b8152602001606081525090565b604080519081016040528060008152602001600081525090565b815481835581811115614e7c57818360005260206000209182019101614e7b9190614f52565b5b505050565b604080519081016040528060008152602001600081525090565b606060405190810160405280600390602082028038833980820191505090505090565b608060405190810160405280600490602082028038833980820191505090505090565b608060405190810160405280614ef5614f77565b8152602001614f02614f77565b81525090565b608060405190810160405280614f1c614f77565b8152602001614f29614f77565b81525090565b602060405190810160405280600190602082028038833980820191505090505090565b614f7491905b80821115614f70576000816000905550600101614f58565b5090565b90565b604080519081016040528060029060208202803883398082019150509050509056fe546f206164647265737320697320746865206f776e6572206f662074686520676976656e20746f6b656e21546f6b656e206d75737420626520747261736e666572656420746f20612076616c69642061646472657373215472616e73616374696f6e207375636365737366756c6c792076657269666965642e546869732073686f756c642062652063616c6c6564206279206f776e6572206f6e6c7921546f6b656e2063616e2062652074726e73666572726564206279206f776e6572206f6e6c792153656e646572206973206e6f7420746865206f776e6572206f662074686520676976656e20746f6b656e21a165627a7a723058201a633f73f1325a1fe169aff66d54acb3e2dfa48c9a0b6a9dcb9acaaf51e351b8002968747470733a2f2f73332d75732d776573742d322e616d617a6f6e6177732e636f6d2f756461636974792d626c6f636b636861696e2f63617073746f6e652f",
  "source": "pragma solidity >=0.4.21 <0.6.0;\n\n// TODO define a contract call to the zokrates generated solidity contract <Verifier> or <renamedVerifier>\n//import the required contracts \nimport './verifier.sol';\nimport './ERC721Mintable.sol';\n\n\n// TODO define another contract named SolnSquareVerifier that inherits from your ERC721Mintable class\ncontract SolnSquareVerifier is CustomERC721Token, Verifier {\n    // TODO define a solutions struct that can hold an index & an address\n    struct Solution {\n        uint256 tokenId; \n        address owner; \n    }\n\n    // TODO define an array of the above struct\n    Solution[] solutionsArray;\n\n    // TODO define a mapping to store unique solutions submitted\n    mapping(bytes32 => Solution) private uniqueSolutions; \n\n    // TODO Create an event to emit when a solution is added\n    event SolutionAdded(address owner, uint256 tokenId);\n    \n    // TODO Create a function to add the solutions to the array and emit the event\n    function addUniqueSolution(address owner, uint256 tokenId, bytes32 unique) public {\n        //TODO fill the function\n        require(uniqueSolutions[unique].owner == address(0), 'Solution exists already!');\n        uniqueSolutions[unique] = Solution({tokenId: tokenId, owner: owner}); \n        emit SolutionAdded(owner, tokenId);\n    }\n\n\n    // TODO Create a function to mint new NFT only after the solution has been verified\n    //  - make sure the solution is unique (has not been used before)\n    //  - make sure you handle metadata as well as tokenSuplly\n    function mintNFT(address owner, uint256 tokenId, string memory tokenURI,\n            /* added from verifier class (all verification parameters) */\n            uint[2] memory a,\n            uint[2] memory a_p,\n            uint[2][2] memory b,\n            uint[2] memory b_p,\n            uint[2] memory c,\n            uint[2] memory c_p,\n            uint[2] memory h,\n            uint[2] memory k,\n            uint[2] memory input) public onlyOwner() returns(bool) {\n        \n        bool valid = super.verifyTx(a, a_p, b, b_p, c, c_p, h, k, input);\n        require(valid, 'Solution is not valid!');\n        \n        bytes32 unique = keccak256(abi.encodePacked(a, a_p, b, b_p, c, c_p, h, k, input));\n        addUniqueSolution(owner, tokenId, unique);\n\n        super.mint(owner, tokenId, tokenURI);\n        return true; \n        //TODO handle metadata and tokenSupply!\n        //this is handled by inhiretance. \n    }\n\n}\n\n\n\n\n\n\n\n\n\n\n\n\n\n\n\n\n  \n\n\n\n\n\n\n\n\n\n\n\n\n\n\n\n\n\n\n\n\n\n\n\n\n\n\n",
  "sourcePath": "/Users/abz/Development/BCND/CH8/Blockchain-Capstone/eth-contracts/contracts/SolnSquareVerifier.sol",
  "compiler": {
    "name": "solc",
    "version": "0.5.2+commit.1df8f40c.Emscripten.clang"
  },
  "schemaVersion": "3.0.8",
  "updatedAt": "2019-04-30T19:20:43.588Z",
  "devdoc": {
    "methods": {
      "isApprovedForAll(address,address)": {
        "details": "Tells whether an operator is approved by a given owner",
        "params": {
          "operator": "operator address which you want to query the approval of",
          "owner": "owner address which you want to query the approval of"
        },
        "return": "bool whether the given operator is approved by the given owner"
      },
      "setApprovalForAll(address,bool)": {
        "details": "Sets or unsets the approval of a given operator An operator is allowed to transfer all tokens of the sender on their behalf",
        "params": {
          "approved": "representing the status of the approval to be set",
          "to": "operator address to set the approval"
        }
      },
      "supportsInterface(bytes4)": {
        "details": "implement supportsInterface(bytes4) using a lookup table"
      },
      "tokenByIndex(uint256)": {
        "details": "Gets the token ID at a given index of all the tokens in this contract Reverts if the index is greater or equal to the total number of tokens",
        "params": {
          "index": "uint256 representing the index to be accessed of the tokens list"
        },
        "return": "uint256 token ID at the given index of the tokens list"
      },
      "tokenOfOwnerByIndex(address,uint256)": {
        "details": "Gets the token ID at a given index of the tokens list of the requested owner",
        "params": {
          "index": "uint256 representing the index to be accessed of the requested tokens list",
          "owner": "address owning the tokens list to be accessed"
        },
        "return": "uint256 token ID at the given index of the tokens list owned by the requested address"
      },
      "totalSupply()": {
        "details": "Gets the total amount of tokens stored by the contract",
        "return": "uint256 representing the total amount of tokens"
      }
    }
  },
  "userdoc": {
    "methods": {}
  }
}