{
  "contractName": "SolnSquareVerifier",
  "abi": [
    {
      "constant": true,
      "inputs": [
        {
          "name": "interfaceId",
          "type": "bytes4"
        }
      ],
      "name": "supportsInterface",
      "outputs": [
        {
          "name": "",
          "type": "bool"
        }
      ],
      "payable": false,
      "stateMutability": "view",
      "type": "function"
    },
    {
      "constant": true,
      "inputs": [
        {
          "name": "tokenId",
          "type": "uint256"
        }
      ],
      "name": "getApproved",
      "outputs": [
        {
          "name": "",
          "type": "address"
        }
      ],
      "payable": false,
      "stateMutability": "view",
      "type": "function"
    },
    {
      "constant": false,
      "inputs": [
        {
          "name": "to",
          "type": "address"
        },
        {
          "name": "tokenId",
          "type": "uint256"
        }
      ],
      "name": "approve",
      "outputs": [],
      "payable": false,
      "stateMutability": "nonpayable",
      "type": "function"
    },
    {
      "constant": true,
      "inputs": [],
      "name": "getSymbol",
      "outputs": [
        {
          "name": "",
          "type": "string"
        }
      ],
      "payable": false,
      "stateMutability": "view",
      "type": "function"
    },
    {
      "constant": false,
      "inputs": [
        {
          "name": "newValue",
          "type": "bool"
        }
      ],
      "name": "setPaused",
      "outputs": [],
      "payable": false,
      "stateMutability": "nonpayable",
      "type": "function"
    },
    {
      "constant": true,
      "inputs": [],
      "name": "totalSupply",
      "outputs": [
        {
          "name": "",
          "type": "uint256"
        }
      ],
      "payable": false,
      "stateMutability": "view",
      "type": "function"
    },
    {
      "constant": false,
      "inputs": [
        {
          "name": "from",
          "type": "address"
        },
        {
          "name": "to",
          "type": "address"
        },
        {
          "name": "tokenId",
          "type": "uint256"
        }
      ],
      "name": "transferFrom",
      "outputs": [],
      "payable": false,
      "stateMutability": "nonpayable",
      "type": "function"
    },
    {
      "constant": false,
      "inputs": [
        {
          "name": "_myid",
          "type": "bytes32"
        },
        {
          "name": "_result",
          "type": "string"
        }
      ],
      "name": "__callback",
      "outputs": [],
      "payable": false,
      "stateMutability": "nonpayable",
      "type": "function"
    },
    {
      "constant": true,
      "inputs": [
        {
          "name": "owner",
          "type": "address"
        },
        {
          "name": "index",
          "type": "uint256"
        }
      ],
      "name": "tokenOfOwnerByIndex",
      "outputs": [
        {
          "name": "",
          "type": "uint256"
        }
      ],
      "payable": false,
      "stateMutability": "view",
      "type": "function"
    },
    {
      "constant": false,
      "inputs": [
        {
          "name": "_myid",
          "type": "bytes32"
        },
        {
          "name": "_result",
          "type": "string"
        },
        {
          "name": "_proof",
          "type": "bytes"
        }
      ],
      "name": "__callback",
      "outputs": [],
      "payable": false,
      "stateMutability": "nonpayable",
      "type": "function"
    },
    {
      "constant": false,
      "inputs": [
        {
          "name": "from",
          "type": "address"
        },
        {
          "name": "to",
          "type": "address"
        },
        {
          "name": "tokenId",
          "type": "uint256"
        }
      ],
      "name": "safeTransferFrom",
      "outputs": [],
      "payable": false,
      "stateMutability": "nonpayable",
      "type": "function"
    },
    {
      "constant": true,
      "inputs": [
        {
          "name": "index",
          "type": "uint256"
        }
      ],
      "name": "tokenByIndex",
      "outputs": [
        {
          "name": "",
          "type": "uint256"
        }
      ],
      "payable": false,
      "stateMutability": "view",
      "type": "function"
    },
    {
      "constant": true,
      "inputs": [
        {
          "name": "tokenId",
          "type": "uint256"
        }
      ],
      "name": "ownerOf",
      "outputs": [
        {
          "name": "",
          "type": "address"
        }
      ],
      "payable": false,
      "stateMutability": "view",
      "type": "function"
    },
    {
      "constant": true,
      "inputs": [
        {
          "name": "owner",
          "type": "address"
        }
      ],
      "name": "balanceOf",
      "outputs": [
        {
          "name": "",
          "type": "uint256"
        }
      ],
      "payable": false,
      "stateMutability": "view",
      "type": "function"
    },
    {
      "constant": true,
      "inputs": [],
      "name": "getTokenName",
      "outputs": [
        {
          "name": "",
          "type": "string"
        }
      ],
      "payable": false,
      "stateMutability": "view",
      "type": "function"
    },
    {
      "constant": true,
      "inputs": [],
      "name": "getOwner",
      "outputs": [
        {
          "name": "",
          "type": "address"
        }
      ],
      "payable": false,
      "stateMutability": "view",
      "type": "function"
    },
    {
      "constant": false,
      "inputs": [
        {
          "name": "to",
          "type": "address"
        },
        {
          "name": "approved",
          "type": "bool"
        }
      ],
      "name": "setApprovalForAll",
      "outputs": [],
      "payable": false,
      "stateMutability": "nonpayable",
      "type": "function"
    },
    {
      "constant": false,
      "inputs": [
        {
          "name": "from",
          "type": "address"
        },
        {
          "name": "to",
          "type": "address"
        },
        {
          "name": "tokenId",
          "type": "uint256"
        },
        {
          "name": "_data",
          "type": "bytes"
        }
      ],
      "name": "safeTransferFrom",
      "outputs": [],
      "payable": false,
      "stateMutability": "nonpayable",
      "type": "function"
    },
    {
      "constant": true,
      "inputs": [],
      "name": "getBaseTokenURI",
      "outputs": [
        {
          "name": "",
          "type": "string"
        }
      ],
      "payable": false,
      "stateMutability": "view",
      "type": "function"
    },
    {
      "constant": true,
      "inputs": [
        {
          "name": "tokenId",
          "type": "uint256"
        }
      ],
      "name": "tokenURI",
      "outputs": [
        {
          "name": "",
          "type": "string"
        }
      ],
      "payable": false,
      "stateMutability": "view",
      "type": "function"
    },
    {
      "constant": false,
      "inputs": [
        {
          "name": "to",
          "type": "address"
        },
        {
          "name": "tokenId",
          "type": "uint256"
        },
        {
          "name": "tokenURI",
          "type": "string"
        }
      ],
      "name": "mint",
      "outputs": [
        {
          "name": "",
          "type": "bool"
        }
      ],
      "payable": false,
      "stateMutability": "nonpayable",
      "type": "function"
    },
    {
      "constant": true,
      "inputs": [
        {
          "name": "owner",
          "type": "address"
        },
        {
          "name": "operator",
          "type": "address"
        }
      ],
      "name": "isApprovedForAll",
      "outputs": [
        {
          "name": "",
          "type": "bool"
        }
      ],
      "payable": false,
      "stateMutability": "view",
      "type": "function"
    },
    {
      "constant": false,
      "inputs": [
        {
          "name": "newOwner",
          "type": "address"
        }
      ],
      "name": "transferOwnership",
      "outputs": [],
      "payable": false,
      "stateMutability": "nonpayable",
      "type": "function"
    },
    {
      "anonymous": false,
      "inputs": [
        {
          "indexed": false,
          "name": "a",
          "type": "uint256[2]"
        },
        {
          "indexed": false,
          "name": "a_p",
          "type": "uint256[2]"
        },
        {
          "name": "b",
          "type": "uint256[2][2]"
        },
        {
          "name": "b_p",
          "type": "uint256[2]"
        },
        {
          "name": "c",
          "type": "uint256[2]"
        },
        {
          "name": "c_p",
          "type": "uint256[2]"
        },
        {
          "name": "h",
          "type": "uint256[2]"
        },
        {
          "name": "k",
          "type": "uint256[2]"
        },
        {
          "name": "input",
          "type": "uint256[2]"
        }
      ],
      "name": "verifyTx",
      "type": "function",
      "constant": false,
      "outputs": [
        {
          "name": "r",
          "type": "bool"
        }
      ],
      "payable": false,
      "stateMutability": "nonpayable"
    },
    {
      "anonymous": false,
      "inputs": [
        {
          "indexed": false,
          "name": "owner",
          "type": "address"
        },
        {
          "indexed": false,
          "name": "tokenId",
          "type": "uint256"
        },
        {
          "indexed": true,
          "name": "tokenId",
          "type": "uint256"
        }
      ],
      "name": "SolutionAdded",
      "type": "event"
    },
    {
      "anonymous": false,
      "inputs": [
        {
          "indexed": false,
          "name": "s",
          "type": "string"
        },
        {
          "indexed": true,
          "name": "approved",
          "type": "address"
        },
        {
          "indexed": true,
          "name": "tokenId",
          "type": "uint256"
        }
      ],
      "name": "Verified",
      "type": "event"
    },
    {
      "anonymous": false,
      "inputs": [
        {
          "indexed": true,
          "name": "from",
          "type": "address"
        },
        {
          "indexed": true,
          "name": "to",
          "type": "address"
        },
        {
          "indexed": true,
          "name": "tokenId",
          "type": "uint256"
        }
      ],
      "name": "Transfer",
      "type": "event"
    },
    {
      "anonymous": false,
      "inputs": [
        {
          "indexed": true,
          "name": "owner",
          "type": "address"
        },
        {
          "indexed": true,
          "name": "approved",
          "type": "address"
        },
        {
          "indexed": true,
          "name": "tokenId",
          "type": "uint256"
        }
      ],
      "name": "Approval",
      "type": "event"
    },
    {
      "anonymous": false,
      "inputs": [
        {
          "indexed": true,
          "name": "owner",
          "type": "address"
        },
        {
          "indexed": true,
          "name": "operator",
          "type": "address"
        },
        {
          "indexed": false,
          "name": "approved",
          "type": "bool"
        }
      ],
      "name": "ApprovalForAll",
      "type": "event"
    },
    {
      "anonymous": false,
      "inputs": [
        {
          "indexed": true,
          "name": "account",
          "type": "address"
        },
        {
          "indexed": true,
          "name": "newOwner",
          "type": "address"
        }
      ],
      "name": "Paused",
      "type": "event"
    },
    {
      "constant": false,
      "inputs": [
        {
          "name": "account",
          "type": "address",
          "indexed": true
        },
        {
          "name": "tokenId",
          "type": "uint256"
        }
      ],
      "name": "Unpaused",
      "outputs": [],
      "payable": false,
      "stateMutability": "nonpayable",
      "type": "event",
      "anonymous": false
    },
    {
      "constant": false,
      "inputs": [
        {
          "name": "oldOwner",
          "type": "address",
          "indexed": true
        },
        {
          "name": "newOwner",
          "type": "address",
          "indexed": true
        }
      ],
      "name": "TransferOwnership",
      "outputs": [],
      "payable": false,
      "stateMutability": "nonpayable",
      "type": "event",
      "anonymous": false
    },
    {
      "constant": false,
      "inputs": [
        {
          "name": "owner",
          "type": "address"
        },
        {
          "name": "tokenId",
          "type": "uint256"
        },
        {
          "name": "unique",
          "type": "bytes32"
        }
      ],
      "name": "addUniqueSolution",
      "outputs": [],
      "payable": false,
      "stateMutability": "nonpayable",
      "type": "function"
    },
    {
      "constant": false,
      "inputs": [
        {
          "name": "owner",
          "type": "address"
        },
        {
          "name": "tokenId",
          "type": "uint256"
        },
        {
          "name": "tokenURI",
          "type": "string"
        },
        {
          "name": "a",
          "type": "uint256[2]"
        },
        {
          "name": "a_p",
          "type": "uint256[2]"
        },
        {
          "name": "b",
          "type": "uint256[2][2]"
        },
        {
          "name": "b_p",
          "type": "uint256[2]"
        },
        {
          "name": "c",
          "type": "uint256[2]"
        },
        {
          "name": "c_p",
          "type": "uint256[2]"
        },
        {
          "name": "h",
          "type": "uint256[2]"
        },
        {
          "name": "k",
          "type": "uint256[2]"
        },
        {
          "name": "input",
          "type": "uint256[2]"
        }
      ],
      "name": "mintNFT",
      "outputs": [],
      "payable": false,
      "stateMutability": "nonpayable",
      "type": "function"
    }
  ],
  "bytecode": "0x60806040526040805190810160405280600c81526020017f4172616269616e20436f696e00000000000000000000000000000000000000008152506040805190810160405280600481526020017f4152424f00000000000000000000000000000000000000000000000000000000815250606060405190810160405280603f8152602001620054ad603f9139336000806101000a81548173ffffffffffffffffffffffffffffffffffffffff021916908373ffffffffffffffffffffffffffffffffffffffff1602179055506000809054906101000a900473ffffffffffffffffffffffffffffffffffffffff1673ffffffffffffffffffffffffffffffffffffffff16600073ffffffffffffffffffffffffffffffffffffffff167f5c486528ec3e3f0ea91181cff8116f02bfa350e03b8b6f12e00765adbb5af85c60405160405180910390a360008060146101000a81548160ff0219169083151502179055506200019e6301ffc9a77c010000000000000000000000000000000000000000000000000000000002620002a9640100000000026401000000009004565b620001db6380ac58cd7c010000000000000000000000000000000000000000000000000000000002620002a9640100000000026401000000009004565b6200021863780e9d637c010000000000000000000000000000000000000000000000000000000002620002a9640100000000026401000000009004565b82600f90805190602001906200023092919062000367565b5081601090805190602001906200024992919062000367565b5080601190805190602001906200026292919062000367565b50620002a0635b5e139f7c010000000000000000000000000000000000000000000000000000000002620002a9640100000000026401000000009004565b50505062000416565b63ffffffff7c010000000000000000000000000000000000000000000000000000000002817bffffffffffffffffffffffffffffffffffffffffffffffffffffffff191614151515620002fb57600080fd5b6001806000837bffffffffffffffffffffffffffffffffffffffffffffffffffffffff19167bffffffffffffffffffffffffffffffffffffffffffffffffffffffff1916815260200190815260200160002060006101000a81548160ff02191690831515021790555050565b828054600181600116156101000203166002900490600052602060002090601f016020900481019282601f10620003aa57805160ff1916838001178555620003db565b82800160010185558215620003db579182015b82811115620003da578251825591602001919060010190620003bd565b5b509050620003ea9190620003ee565b5090565b6200041391905b808211156200040f576000816000905550600101620003f5565b5090565b90565b61508780620004266000396000f3fe608060405234801561001057600080fd5b50600436106101ab576000357c01000000000000000000000000000000000000000000000000000000009004806370a08231116100fb578063b88d4fde116100b4578063d3fc98641161008e578063d3fc986414610f14578063e985e9c514611011578063f2fde38b1461108d578063fe01ff62146110d1576101ab565b8063b88d4fde14610ce5578063bdc32be014610dea578063c87b56dd14610e6d576101ab565b806370a08231146107b1578063862b092b14610809578063893d20e81461088c578063a22cb465146108d6578063a8e8874114610926578063a8f18c4d14610c8d576101ab565b806323b872dd1161016857806338bbfa501161014257806338bbfa501461053757806342842e0e146106935780634f6ccce7146107015780636352211e14610743576101ab565b806323b872dd146103a257806327dc297e146104105780632f745c59146104d5576101ab565b806301ffc9a7146101b0578063081812fc14610215578063095ea7b31461028357806315070401146102d157806316c38b3c1461035457806318160ddd14610384575b600080fd5b6101fb600480360360208110156101c657600080fd5b8101908080357bffffffffffffffffffffffffffffffffffffffffffffffffffffffff1916906020019092919050505061138f565b604051808215151515815260200191505060405180910390f35b6102416004803603602081101561022b57600080fd5b81019080803590602001909291905050506113f7565b604051808273ffffffffffffffffffffffffffffffffffffffff1673ffffffffffffffffffffffffffffffffffffffff16815260200191505060405180910390f35b6102cf6004803603604081101561029957600080fd5b81019080803573ffffffffffffffffffffffffffffffffffffffff169060200190929190803590602001909291905050506114b1565b005b6102d961167f565b6040518080602001828103825283818151815260200191508051906020019080838360005b838110156103195780820151818401526020810190506102fe565b50505050905090810190601f1680156103465780820380516001836020036101000a031916815260200191505b509250505060405180910390f35b6103826004803603602081101561036a57600080fd5b81019080803515159060200190929190505050611721565b005b61038c6117e5565b6040518082815260200191505060405180910390f35b61040e600480360360608110156103b857600080fd5b81019080803573ffffffffffffffffffffffffffffffffffffffff169060200190929190803573ffffffffffffffffffffffffffffffffffffffff169060200190929190803590602001909291905050506117f2565b005b6104d36004803603604081101561042657600080fd5b81019080803590602001909291908035906020019064010000000081111561044d57600080fd5b82018360208201111561045f57600080fd5b8035906020019184600183028401116401000000008311171561048157600080fd5b91908080601f016020809104026020016040519081016040528093929190818152602001838380828437600081840152601f19601f820116905080830192505050505050509192919290505050611817565b005b610521600480360360408110156104eb57600080fd5b81019080803573ffffffffffffffffffffffffffffffffffffffff1690602001909291908035906020019092919050505061185a565b6040518082815260200191505060405180910390f35b6106916004803603606081101561054d57600080fd5b81019080803590602001909291908035906020019064010000000081111561057457600080fd5b82018360208201111561058657600080fd5b803590602001918460018302840111640100000000831117156105a857600080fd5b91908080601f016020809104026020016040519081016040528093929190818152602001838380828437600081840152601f19601f8201169050808301925050505050505091929192908035906020019064010000000081111561060b57600080fd5b82018360208201111561061d57600080fd5b8035906020019184600183028401116401000000008311171561063f57600080fd5b91908080601f016020809104026020016040519081016040528093929190818152602001838380828437600081840152601f19601f8201169050808301925050505050505091929192905050506118d1565b005b6106ff600480360360608110156106a957600080fd5b81019080803573ffffffffffffffffffffffffffffffffffffffff169060200190929190803573ffffffffffffffffffffffffffffffffffffffff169060200190929190803590602001909291905050506118d6565b005b61072d6004803603602081101561071757600080fd5b81019080803590602001909291905050506118f7565b6040518082815260200191505060405180910390f35b61076f6004803603602081101561075957600080fd5b810190808035906020019092919050505061192f565b604051808273ffffffffffffffffffffffffffffffffffffffff1673ffffffffffffffffffffffffffffffffffffffff16815260200191505060405180910390f35b6107f3600480360360208110156107c757600080fd5b81019080803573ffffffffffffffffffffffffffffffffffffffff16906020019092919050505061196c565b6040518082815260200191505060405180910390f35b6108116119bc565b6040518080602001828103825283818151815260200191508051906020019080838360005b83811015610851578082015181840152602081019050610836565b50505050905090810190601f16801561087e5780820380516001836020036101000a031916815260200191505b509250505060405180910390f35b610894611a5e565b604051808273ffffffffffffffffffffffffffffffffffffffff1673ffffffffffffffffffffffffffffffffffffffff16815260200191505060405180910390f35b610924600480360360408110156108ec57600080fd5b81019080803573ffffffffffffffffffffffffffffffffffffffff169060200190929190803515159060200190929190505050611a87565b005b610c8b60048036036102e081101561093d57600080fd5b81019080803573ffffffffffffffffffffffffffffffffffffffff169060200190929190803590602001909291908035906020019064010000000081111561098457600080fd5b82018360208201111561099657600080fd5b803590602001918460018302840111640100000000831117156109b857600080fd5b91908080601f016020809104026020016040519081016040528093929190818152602001838380828437600081840152601f19601f82011690508083019250505050505050919291929080604001906002806020026040519081016040528092919082600260200280828437600081840152601f19601f820116905080830192505050505050919291929080604001906002806020026040519081016040528092919082600260200280828437600081840152601f19601f82011690508083019250505050505091929192908060800190600280602002604051908101604052809291906000905b82821015610af4578382604002016002806020026040519081016040528092919082600260200280828437600081840152601f19601f82011690508083019250505050505081526020019060010190610aa0565b50505050919291929080604001906002806020026040519081016040528092919082600260200280828437600081840152601f19601f820116905080830192505050505050919291929080604001906002806020026040519081016040528092919082600260200280828437600081840152601f19601f820116905080830192505050505050919291929080604001906002806020026040519081016040528092919082600260200280828437600081840152601f19601f820116905080830192505050505050919291929080604001906002806020026040519081016040528092919082600260200280828437600081840152601f19601f820116905080830192505050505050919291929080604001906002806020026040519081016040528092919082600260200280828437600081840152601f19601f820116905080830192505050505050919291929080604001906002806020026040519081016040528092919082600260200280828437600081840152601f19601f8201169050808301925050505050509192919290505050611bc3565b005b610ce360048036036060811015610ca357600080fd5b81019080803573ffffffffffffffffffffffffffffffffffffffff1690602001909291908035906020019092919080359060200190929190505050611f05565b005b610de860048036036080811015610cfb57600080fd5b81019080803573ffffffffffffffffffffffffffffffffffffffff169060200190929190803573ffffffffffffffffffffffffffffffffffffffff1690602001909291908035906020019092919080359060200190640100000000811115610d6257600080fd5b820183602082011115610d7457600080fd5b80359060200191846001830284011164010000000083111715610d9657600080fd5b91908080601f016020809104026020016040519081016040528093929190818152602001838380828437600081840152601f19601f8201169050808301925050505050505091929192905050506120e1565b005b610df2612109565b6040518080602001828103825283818151815260200191508051906020019080838360005b83811015610e32578082015181840152602081019050610e17565b50505050905090810190601f168015610e5f5780820380516001836020036101000a031916815260200191505b509250505060405180910390f35b610e9960048036036020811015610e8357600080fd5b81019080803590602001909291905050506121ab565b6040518080602001828103825283818151815260200191508051906020019080838360005b83811015610ed9578082015181840152602081019050610ebe565b50505050905090810190601f168015610f065780820380516001836020036101000a031916815260200191505b509250505060405180910390f35b610ff760048036036060811015610f2a57600080fd5b81019080803573ffffffffffffffffffffffffffffffffffffffff1690602001909291908035906020019092919080359060200190640100000000811115610f7157600080fd5b820183602082011115610f8357600080fd5b80359060200191846001830284011164010000000083111715610fa557600080fd5b91908080601f016020809104026020016040519081016040528093929190818152602001838380828437600081840152601f19601f820116905080830192505050505050509192919290505050612274565b604051808215151515815260200191505060405180910390f35b6110736004803603604081101561102757600080fd5b81019080803573ffffffffffffffffffffffffffffffffffffffff169060200190929190803573ffffffffffffffffffffffffffffffffffffffff16906020019092919050505061233b565b604051808215151515815260200191505060405180910390f35b6110cf600480360360208110156110a357600080fd5b81019080803573ffffffffffffffffffffffffffffffffffffffff1690602001909291905050506123cf565b005b61137560048036036102808110156110e857600080fd5b8101908080604001906002806020026040519081016040528092919082600260200280828437600081840152601f19601f820116905080830192505050505050919291929080604001906002806020026040519081016040528092919082600260200280828437600081840152601f19601f82011690508083019250505050505091929192908060800190600280602002604051908101604052809291906000905b828210156111de578382604002016002806020026040519081016040528092919082600260200280828437600081840152601f19601f8201169050808301925050505050508152602001906001019061118a565b50505050919291929080604001906002806020026040519081016040528092919082600260200280828437600081840152601f19601f820116905080830192505050505050919291929080604001906002806020026040519081016040528092919082600260200280828437600081840152601f19601f820116905080830192505050505050919291929080604001906002806020026040519081016040528092919082600260200280828437600081840152601f19601f820116905080830192505050505050919291929080604001906002806020026040519081016040528092919082600260200280828437600081840152601f19601f820116905080830192505050505050919291929080604001906002806020026040519081016040528092919082600260200280828437600081840152601f19601f820116905080830192505050505050919291929080604001906002806020026040519081016040528092919082600260200280828437600081840152601f19601f82011690508083019250505050505091929192905050506125d9565b604051808215151515815260200191505060405180910390f35b600060016000837bffffffffffffffffffffffffffffffffffffffffffffffffffffffff19167bffffffffffffffffffffffffffffffffffffffffffffffffffffffff1916815260200190815260200160002060009054906101000a900460ff169050919050565b600061140282612992565b1515611476576040517f08c379a00000000000000000000000000000000000000000000000000000000081526004018080602001828103825260158152602001807f546f6b656e20646f6573206e6f7420657869737421000000000000000000000081525060200191505060405180910390fd5b6003600083815260200190815260200160002060009054906101000a900473ffffffffffffffffffffffffffffffffffffffff169050919050565b6114ba8161192f565b73ffffffffffffffffffffffffffffffffffffffff168273ffffffffffffffffffffffffffffffffffffffff1614151515611540576040517f08c379a000000000000000000000000000000000000000000000000000000000815260040180806020018281038252602b815260200180614f6e602b913960400191505060405180910390fd5b6115498161192f565b73ffffffffffffffffffffffffffffffffffffffff163373ffffffffffffffffffffffffffffffffffffffff161415156115ce576040517f08c379a000000000000000000000000000000000000000000000000000000000815260040180806020018281038252602b815260200180615031602b913960400191505060405180910390fd5b816003600083815260200190815260200160002060006101000a81548173ffffffffffffffffffffffffffffffffffffffff021916908373ffffffffffffffffffffffffffffffffffffffff160217905550808273ffffffffffffffffffffffffffffffffffffffff163373ffffffffffffffffffffffffffffffffffffffff167f8c5be1e5ebec7d5bd14f71427d1e84f3dd0314c0f7b2291e5b200ac8c7c3b92560405160405180910390a45050565b606060108054600181600116156101000203166002900480601f0160208091040260200160405190810160405280929190818152602001828054600181600116156101000203166002900480156117175780601f106116ec57610100808354040283529160200191611717565b820191906000526020600020905b8154815290600101906020018083116116fa57829003601f168201915b5050505050905090565b6000809054906101000a900473ffffffffffffffffffffffffffffffffffffffff1673ffffffffffffffffffffffffffffffffffffffff163373ffffffffffffffffffffffffffffffffffffffff161415156117c8576040517f08c379a0000000000000000000000000000000000000000000000000000000008152600401808060200182810382526024815260200180614fe76024913960400191505060405180910390fd5b80600060146101000a81548160ff02191690831515021790555050565b6000600880549050905090565b6117fc3382612a04565b151561180757600080fd5b611812838383612a99565b505050565b611856828260006040519080825280601f01601f1916602001820160405280156118505781602001600182028038833980820191505090505b506118d1565b5050565b60006118658361196c565b8210151561187257600080fd5b600660008473ffffffffffffffffffffffffffffffffffffffff1673ffffffffffffffffffffffffffffffffffffffff168152602001908152602001600020828154811015156118be57fe5b9060005260206000200154905092915050565b505050565b6118f283838360206040519081016040528060008152506120e1565b505050565b60006119016117e5565b8210151561190e57600080fd5b60088281548110151561191d57fe5b90600052602060002001549050919050565b60006002600083815260200190815260200160002060009054906101000a900473ffffffffffffffffffffffffffffffffffffffff169050919050565b60006119b5600460008473ffffffffffffffffffffffffffffffffffffffff1673ffffffffffffffffffffffffffffffffffffffff168152602001908152602001600020612abd565b9050919050565b6060600f8054600181600116156101000203166002900480601f016020809104026020016040519081016040528092919081815260200182805460018160011615610100020316600290048015611a545780601f10611a2957610100808354040283529160200191611a54565b820191906000526020600020905b815481529060010190602001808311611a3757829003601f168201915b5050505050905090565b60008060009054906101000a900473ffffffffffffffffffffffffffffffffffffffff16905090565b3373ffffffffffffffffffffffffffffffffffffffff168273ffffffffffffffffffffffffffffffffffffffff1614151515611ac257600080fd5b80600560003373ffffffffffffffffffffffffffffffffffffffff1673ffffffffffffffffffffffffffffffffffffffff16815260200190815260200160002060008473ffffffffffffffffffffffffffffffffffffffff1673ffffffffffffffffffffffffffffffffffffffff16815260200190815260200160002060006101000a81548160ff0219169083151502179055508173ffffffffffffffffffffffffffffffffffffffff163373ffffffffffffffffffffffffffffffffffffffff167f17307eab39ab6107e8899845ad3d59bd9653f200f220920489ca2b5937696c3183604051808215151515815260200191505060405180910390a35050565b6000809054906101000a900473ffffffffffffffffffffffffffffffffffffffff1673ffffffffffffffffffffffffffffffffffffffff163373ffffffffffffffffffffffffffffffffffffffff16141515611c6a576040517f08c379a0000000000000000000000000000000000000000000000000000000008152600401808060200182810382526024815260200180614fe76024913960400191505060405180910390fd5b6000611c7d8a8a8a8a8a8a8a8a8a6125d9565b9050801515611cf4576040517f08c379a00000000000000000000000000000000000000000000000000000000081526004018080602001828103825260168152602001807f536f6c7574696f6e206973206e6f742076616c6964210000000000000000000081525060200191505060405180910390fd5b60008a8a8a8a8a8a8a8a8a604051602001808a600260200280838360005b83811015611d2d578082015181840152602081019050611d12565b5050505090500189600260200280838360005b83811015611d5b578082015181840152602081019050611d40565b505050509050018860026000925b81841015611daf5782846020020151600260200280838360005b83811015611d9e578082015181840152602081019050611d83565b505050509050019260010192611d69565b9250505087600260200280838360005b83811015611dda578082015181840152602081019050611dbf565b5050505090500186600260200280838360005b83811015611e08578082015181840152602081019050611ded565b5050505090500185600260200280838360005b83811015611e36578082015181840152602081019050611e1b565b5050505090500184600260200280838360005b83811015611e64578082015181840152602081019050611e49565b5050505090500183600260200280838360005b83811015611e92578082015181840152602081019050611e77565b5050505090500182600260200280838360005b83811015611ec0578082015181840152602081019050611ea5565b505050509050019950505050505050505050604051602081830303815290604052805190602001209050611ef58e8e83611f05565b5050505050505050505050505050565b600073ffffffffffffffffffffffffffffffffffffffff166014600083815260200190815260200160002060010160009054906101000a900473ffffffffffffffffffffffffffffffffffffffff1673ffffffffffffffffffffffffffffffffffffffff16141515611fdf576040517f08c379a00000000000000000000000000000000000000000000000000000000081526004018080602001828103825260188152602001807f536f6c7574696f6e2065786973747320616c726561647921000000000000000081525060200191505060405180910390fd5b60408051908101604052808381526020018473ffffffffffffffffffffffffffffffffffffffff16815250601460008381526020019081526020016000206000820151816000015560208201518160010160006101000a81548173ffffffffffffffffffffffffffffffffffffffff021916908373ffffffffffffffffffffffffffffffffffffffff1602179055509050507f3a01cc868bdb36c1d9b8a262a8ad25064b23ac175b3f8e4453f1daf8ff6bac0d8383604051808373ffffffffffffffffffffffffffffffffffffffff1673ffffffffffffffffffffffffffffffffffffffff1681526020018281526020019250505060405180910390a1505050565b6120ec8484846117f2565b6120f884848484612acb565b151561210357600080fd5b50505050565b606060118054600181600116156101000203166002900480601f0160208091040260200160405190810160405280929190818152602001828054600181600116156101000203166002900480156121a15780601f10612176576101008083540402835291602001916121a1565b820191906000526020600020905b81548152906001019060200180831161218457829003601f168201915b5050505050905090565b60606121b682612992565b15156121c157600080fd5b601260008381526020019081526020016000208054600181600116156101000203166002900480601f0160208091040260200160405190810160405280929190818152602001828054600181600116156101000203166002900480156122685780601f1061223d57610100808354040283529160200191612268565b820191906000526020600020905b81548152906001019060200180831161224b57829003601f168201915b50505050509050919050565b60008060009054906101000a900473ffffffffffffffffffffffffffffffffffffffff1673ffffffffffffffffffffffffffffffffffffffff163373ffffffffffffffffffffffffffffffffffffffff1614151561231d576040517f08c379a0000000000000000000000000000000000000000000000000000000008152600401808060200182810382526024815260200180614fe76024913960400191505060405180910390fd5b6123278484612cee565b61233083612d0f565b600190509392505050565b6000600560008473ffffffffffffffffffffffffffffffffffffffff1673ffffffffffffffffffffffffffffffffffffffff16815260200190815260200160002060008373ffffffffffffffffffffffffffffffffffffffff1673ffffffffffffffffffffffffffffffffffffffff16815260200190815260200160002060009054906101000a900460ff16905092915050565b6000809054906101000a900473ffffffffffffffffffffffffffffffffffffffff1673ffffffffffffffffffffffffffffffffffffffff163373ffffffffffffffffffffffffffffffffffffffff16141515612476576040517f08c379a0000000000000000000000000000000000000000000000000000000008152600401808060200182810382526024815260200180614fe76024913960400191505060405180910390fd5b600073ffffffffffffffffffffffffffffffffffffffff168173ffffffffffffffffffffffffffffffffffffffff161415151561251b576040517f08c379a000000000000000000000000000000000000000000000000000000000815260040180806020018281038252601c8152602001807f4e6577206f776e6572206d75737420626520616e20616464726573730000000081525060200191505060405180910390fd5b8073ffffffffffffffffffffffffffffffffffffffff166000809054906101000a900473ffffffffffffffffffffffffffffffffffffffff1673ffffffffffffffffffffffffffffffffffffffff167f5c486528ec3e3f0ea91181cff8116f02bfa350e03b8b6f12e00765adbb5af85c60405160405180910390a3806000806101000a81548173ffffffffffffffffffffffffffffffffffffffff021916908373ffffffffffffffffffffffffffffffffffffffff16021790555050565b60006125e3614ca9565b60408051908101604052808c60006002811015156125fd57fe5b602002015181526020018c600160028110151561261657fe5b6020020151815250816000018190525060408051908101604052808b600060028110151561264057fe5b602002015181526020018b600160028110151561265957fe5b60200201518152508160200181905250604080519081016040528060408051908101604052808c600060028110151561268e57fe5b602002015160006002811015156126a157fe5b602002015181526020018c60006002811015156126ba57fe5b602002015160016002811015156126cd57fe5b6020020151815250815260200160408051908101604052808c60016002811015156126f457fe5b6020020151600060028110151561270757fe5b602002015181526020018c600160028110151561272057fe5b6020020151600160028110151561273357fe5b60200201518152508152508160400181905250604080519081016040528089600060028110151561276057fe5b6020020151815260200189600160028110151561277957fe5b6020020151815250816060018190525060408051908101604052808860006002811015156127a357fe5b602002015181526020018860016002811015156127bc57fe5b6020020151815250816080018190525060408051908101604052808760006002811015156127e657fe5b602002015181526020018760016002811015156127ff57fe5b60200201518152508160a00181905250604080519081016040528086600060028110151561282957fe5b6020020151815260200186600160028110151561284257fe5b60200201518152508160e00181905250604080519081016040528085600060028110151561286c57fe5b6020020151815260200185600160028110151561288557fe5b60200201518152508160c00181905250606060026040519080825280602002602001820160405280156128c75781602001602082028038833980820191505090505b50905060008090505b60028110156129155784816002811015156128e757fe5b602002015182828151811015156128fa57fe5b906020019060200201818152505080806001019150506128d0565b5060006129228284612e68565b141561297e577f3f3cfdb26fb5f9f1786ab4f1a1f9cd4c0b5e726cbdfc26e495261731aad44e39604051808060200182810382526022815260200180614fc56022913960400191505060405180910390a1600192505050612985565b6000925050505b9998505050505050505050565b6000806002600084815260200190815260200160002060009054906101000a900473ffffffffffffffffffffffffffffffffffffffff169050600073ffffffffffffffffffffffffffffffffffffffff168173ffffffffffffffffffffffffffffffffffffffff161415915050919050565b600080612a108361192f565b90508073ffffffffffffffffffffffffffffffffffffffff168473ffffffffffffffffffffffffffffffffffffffff161480612a7f57508373ffffffffffffffffffffffffffffffffffffffff16612a67846113f7565b73ffffffffffffffffffffffffffffffffffffffff16145b80612a905750612a8f818561233b565b5b91505092915050565b612aa48383836130a8565b612aae8382613307565b612ab882826134ab565b505050565b600081600001549050919050565b6000612aec8473ffffffffffffffffffffffffffffffffffffffff16613572565b1515612afb5760019050612ce6565b60008473ffffffffffffffffffffffffffffffffffffffff1663150b7a02338887876040518563ffffffff167c0100000000000000000000000000000000000000000000000000000000028152600401808573ffffffffffffffffffffffffffffffffffffffff1673ffffffffffffffffffffffffffffffffffffffff1681526020018473ffffffffffffffffffffffffffffffffffffffff1673ffffffffffffffffffffffffffffffffffffffff16815260200183815260200180602001828103825283818151815260200191508051906020019080838360005b83811015612bf2578082015181840152602081019050612bd7565b50505050905090810190601f168015612c1f5780820380516001836020036101000a031916815260200191505b5095505050505050602060405180830381600087803b158015612c4157600080fd5b505af1158015612c55573d6000803e3d6000fd5b505050506040513d6020811015612c6b57600080fd5b8101908080519060200190929190505050905063150b7a027c0100000000000000000000000000000000000000000000000000000000027bffffffffffffffffffffffffffffffffffffffffffffffffffffffff1916817bffffffffffffffffffffffffffffffffffffffffffffffffffffffff1916149150505b949350505050565b612cf88282613585565b612d0282826134ab565b612d0b816137a1565b5050565b612d1881612992565b1515612d8c576040517f08c379a00000000000000000000000000000000000000000000000000000000081526004018080602001828103825260128152602001807f546f6b656e206d7573742065786973747321000000000000000000000000000081525060200191505060405180910390fd5b6060612e3a60118054600181600116156101000203166002900480601f016020809104026020016040519081016040528092919081815260200182805460018160011615610100020316600290048015612e275780601f10612dfc57610100808354040283529160200191612e27565b820191906000526020600020905b815481529060010190602001808311612e0a57829003601f168201915b5050505050612e35846137ed565b613946565b905080601260008481526020019081526020016000209080519060200190612e63929190614d1f565b505050565b6000612e72614d9f565b612e7a61398d565b90508060e00151516001855101141515612e9357600080fd5b612e9b614e0f565b6040805190810160405280600081526020016000815250905060008090505b8551811015612f1a57612f0b82612f068560e0015160018501815181101515612edf57fe5b906020019060200201518985815181101515612ef757fe5b90602001906020020151613fcd565b614069565b91508080600101915050612eba565b50612f41818360e001516000815181101515612f3257fe5b90602001906020020151614069565b9050612f6a84600001518360000151612f5d8760200151614126565b612f656141c2565b61428c565b1515612f7b576001925050506130a2565b612fa282602001518560400151612f958760600151614126565b612f9d6141c2565b61428c565b1515612fb3576002925050506130a2565b612fda84608001518360400151612fcd8760a00151614126565b612fd56141c2565b61428c565b1515612feb576003925050506130a2565b6130378460c00151836060015161301b613016856130118a600001518b60800151614069565b614069565b614126565b8560a0015161302d8760800151614126565b8960400151614398565b1515613048576004925050506130a2565b61308a613059828660000151614069565b856040015161306b8760e00151614126565b8560c0015161307d8960800151614126565b6130856141c2565b614398565b151561309b576005925050506130a2565b6000925050505b92915050565b6130b18161192f565b73ffffffffffffffffffffffffffffffffffffffff168373ffffffffffffffffffffffffffffffffffffffff16141515613136576040517f08c379a000000000000000000000000000000000000000000000000000000000815260040180806020018281038252602681526020018061500b6026913960400191505060405180910390fd5b600073ffffffffffffffffffffffffffffffffffffffff168273ffffffffffffffffffffffffffffffffffffffff16141515156131be576040517f08c379a000000000000000000000000000000000000000000000000000000000815260040180806020018281038252602c815260200180614f99602c913960400191505060405180910390fd5b6131c7816144e0565b61320e600460008573ffffffffffffffffffffffffffffffffffffffff1673ffffffffffffffffffffffffffffffffffffffff1681526020019081526020016000206145a0565b613255600460008473ffffffffffffffffffffffffffffffffffffffff1673ffffffffffffffffffffffffffffffffffffffff1681526020019081526020016000206145c3565b816002600083815260200190815260200160002060006101000a81548173ffffffffffffffffffffffffffffffffffffffff021916908373ffffffffffffffffffffffffffffffffffffffff160217905550808273ffffffffffffffffffffffffffffffffffffffff168473ffffffffffffffffffffffffffffffffffffffff167fddf252ad1be2c89b69c2b068fc378daa952ba7f163c4a11628f55a4df523b3ef60405160405180910390a4505050565b600061335f6001600660008673ffffffffffffffffffffffffffffffffffffffff1673ffffffffffffffffffffffffffffffffffffffff168152602001908152602001600020805490506145d990919063ffffffff16565b90506000600760008481526020019081526020016000205490508181141515613452576000600660008673ffffffffffffffffffffffffffffffffffffffff1673ffffffffffffffffffffffffffffffffffffffff168152602001908152602001600020838154811015156133d057fe5b9060005260206000200154905080600660008773ffffffffffffffffffffffffffffffffffffffff1673ffffffffffffffffffffffffffffffffffffffff1681526020019081526020016000208381548110151561342a57fe5b9060005260206000200181905550816007600083815260200190815260200160002081905550505b600660008573ffffffffffffffffffffffffffffffffffffffff1673ffffffffffffffffffffffffffffffffffffffff1681526020019081526020016000208054809190600190036134a49190614e29565b5050505050565b600660008373ffffffffffffffffffffffffffffffffffffffff1673ffffffffffffffffffffffffffffffffffffffff168152602001908152602001600020805490506007600083815260200190815260200160002081905550600660008373ffffffffffffffffffffffffffffffffffffffff1673ffffffffffffffffffffffffffffffffffffffff1681526020019081526020016000208190806001815401808255809150509060018203906000526020600020016000909192909190915055505050565b600080823b905060008111915050919050565b61358e81612992565b151515613603576040517f08c379a00000000000000000000000000000000000000000000000000000000081526004018080602001828103825260148152602001807f546f6b656e20616c72656164792065786973747300000000000000000000000081525060200191505060405180910390fd5b600073ffffffffffffffffffffffffffffffffffffffff168273ffffffffffffffffffffffffffffffffffffffff16141515156136a8576040517f08c379a000000000000000000000000000000000000000000000000000000000815260040180806020018281038252601b8152602001807f50726f7669646564206164647265737320697320696e76616c6964000000000081525060200191505060405180910390fd5b816002600083815260200190815260200160002060006101000a81548173ffffffffffffffffffffffffffffffffffffffff021916908373ffffffffffffffffffffffffffffffffffffffff160217905550613741600460008473ffffffffffffffffffffffffffffffffffffffff1673ffffffffffffffffffffffffffffffffffffffff1681526020019081526020016000206145c3565b808273ffffffffffffffffffffffffffffffffffffffff16600073ffffffffffffffffffffffffffffffffffffffff167fddf252ad1be2c89b69c2b068fc378daa952ba7f163c4a11628f55a4df523b3ef60405160405180910390a45050565b6008805490506009600083815260200190815260200160002081905550600881908060018154018082558091505090600182039060005260206000200160009091929091909150555050565b60606000821415613835576040805190810160405280600181526020017f30000000000000000000000000000000000000000000000000000000000000008152509050613941565b600082905060005b600082141515613863578080600101915050600a8281151561385b57fe5b04915061383d565b6060816040519080825280601f01601f1916602001820160405280156138985781602001600182028038833980820191505090505b50905060006001830390505b60008614151561393957600a868115156138ba57fe5b066030017f0100000000000000000000000000000000000000000000000000000000000000028282806001900393508151811015156138f557fe5b9060200101907effffffffffffffffffffffffffffffffffffffffffffffffffffffffffffff1916908160001a905350600a8681151561393157fe5b0495506138a4565b819450505050505b919050565b606061398583836020604051908101604052806000815250602060405190810160405280600081525060206040519081016040528060008152506145fb565b905092915050565b613995614d9f565b604080519081016040528060408051908101604052807f1f7e12d0458f8252ef47ef81cbfb21881b7879e2887aaf85700ddd18a37ee11081526020017f147a32ee5e8bab27c9f13f305ec307de462ceb0a236a704a27ed39d86754ec29815250815260200160408051908101604052807f0313d493dc0b2c5061f8d326b6286768b1f895ad6f68216cf53156e1e44a47e081526020017f2459408503fa8532c25f864c5a1e75c7e736d4df5f90296da2b3d3d8ac9855a3815250815250816000018190525060408051908101604052807f0f238eb179c6a857dec42864fa987d164f1d6ac2562d7140eb5f0a0e245c284481526020017f0cf4157330e00ca508823858b37d59fb900bd2a8c9aef752ad0646f12a5fbbeb8152508160200181905250604080519081016040528060408051908101604052807f27d7602a1f276eb6ba8acc39c3e030759608e9201b5f364ed5853d205e4696d481526020017f035df74f123f2d172719ddcd42e572ef985d366421417c0258afa809ab7ee869815250815260200160408051908101604052807f280a7edd1689aba4c2f5498d6e1e57a84465594e85b2d63cc18afbce960621d981526020017f14173dfbfba626273d4c4647e4df4f803adfd542d009bee7eaf0100f8dc292758152508152508160400181905250604080519081016040528060408051908101604052807f08c8e940904f26ee177be21e9730c86ee66a537609973155be524f5247ee332181526020017f2a3bf50166a26d859adce8fe5335beb8be35852e45a3c25055f74efe71b7f39d815250815260200160408051908101604052807eff81b76cfbbaa5edf65d1bb6735cad03821379f632412f25bef6cfec1de83c81526020017f2c51fd89c37d342cc1a209845b1c5f107249c6750badb353abfb5c7ecea3b494815250815250816060018190525060408051908101604052807f1e349c4a0cfeb66c5051530288008870321a315c5e571b2571b4f7bb1375432081526020017f2361f2cd7afee1d441c57f94edcffed8400d648261b1ca0e6eec0230e4bcf9ec8152508160800181905250604080519081016040528060408051908101604052807f221df5713ad5fe8bbe8b08ebca56fc0f0a6772a440e392aa02973efd3bf4fbb381526020017f1c65cc68a5c165f43654df988f83180cad953f927ee26a1464924bd6db590b90815250815260200160408051908101604052807f07935a2cad231a9ddf6400258cf4b2b6d00be2dff3419a10dfaf884eeeab852881526020017f12f7ecfdd721a18511d8347dec259276ce35905f7b7de34cf9b79eced0405ab38152508152508160a00181905250604080519081016040528060408051908101604052807f298e2cd84198af907ff672ef912e30d2b61229bd4ab60279f28941d32f32135281526020017f2c5d1f7d1a6a422b6b0e0628500d0bd61baff1027ed2bed25020fec3e6b40f28815250815260200160408051908101604052807f2d3de36c7309002ec42ca7a234936a605d6614dd67d28ded44604274860d006a81526020017f23e2bc1f246d02414660f664989653ad615df27e742ced4727b495d14853a8be8152508152508160c001819052506003604051908082528060200260200182016040528015613e6257816020015b613e4f614e55565b815260200190600190039081613e475790505b508160e0018190525060408051908101604052807f19420807e55f27aad04c9903e139d93f7f56f3b715377f30409c535ff9df73e681526020017f1834831c74df31112fb916d296cf1060680a5d6d512f976b9bea5f0867d281378152508160e001516000815181101515613ed357fe5b9060200190602002018190525060408051908101604052807f07ca4112ed62735293eaf4e52f677c4c33e303a948c1e00c1681e69013d35a7181526020017f2eb53509f8431316a4c4702a5d4c4234a81fa483ceb1ce9d304464a87631f13e8152508160e001516001815181101515613f4857fe5b9060200190602002018190525060408051908101604052807f09c50801a3990a953785cf7e1f155059563b28a2939410d3da5df429f6f135b081526020017f2e9cf72afabaa192a22564750efe24e82ab93d247888725d00df93aabd1ae1b88152508160e001516002815181101515613fbd57fe5b9060200190602002018190525090565b613fd5614e0f565b613fdd614e6f565b8360000151816000600381101515613ff157fe5b602002018181525050836020015181600160038110151561400e57fe5b6020020181815250508281600260038110151561402757fe5b6020020181815250506000606083608084600060076107d05a03f19050806000811461405257614054565bfe5b5080151561406157600080fd5b505092915050565b614071614e0f565b614079614e92565b836000015181600060048110151561408d57fe5b60200201818152505083602001518160016004811015156140aa57fe5b60200201818152505082600001518160026004811015156140c757fe5b60200201818152505082602001518160036004811015156140e457fe5b602002018181525050600060608360c084600060066107d05a03f19050806000811461410f57614111565bfe5b5080151561411e57600080fd5b505092915050565b61412e614e0f565b60007f30644e72e131a029b85045b68181585d97816a916871ca8d3c208c16d87cfd4790506000836000015114801561416b575060008360200151145b1561418f5760408051908101604052806000815260200160008152509150506141bd565b6040805190810160405280846000015181526020018285602001518115156141b357fe5b0683038152509150505b919050565b6141ca614eb5565b604080519081016040528060408051908101604052807f198e9393920d483a7260bfb731fb5d25f1aa493335a9e71297e485b7aef312c281526020017f1800deef121f1e76426a00665e5c4479674322d4f75edadd46debd5cd992f6ed815250815260200160408051908101604052807f090689d0585ff075ec9e99ad690c3395bc4b313370b38ef355acdadcd122975b81526020017f12c85ea5db8c6deb4aab71808dcb408fe3d1e7690c43d37b4ce6cc0166fa7daa815250815250905090565b6000606060026040519080825280602002602001820160405280156142cb57816020015b6142b8614e55565b8152602001906001900390816142b05790505b5090506060600260405190808252806020026020018201604052801561430b57816020015b6142f8614edc565b8152602001906001900390816142f05790505b5090508682600081518110151561431e57fe5b906020019060200201819052508482600181518110151561433b57fe5b906020019060200201819052508581600081518110151561435857fe5b906020019060200201819052508381600181518110151561437557fe5b9060200190602002018190525061438c8282614a16565b92505050949350505050565b6000606060036040519080825280602002602001820160405280156143d757816020015b6143c4614e55565b8152602001906001900390816143bc5790505b5090506060600360405190808252806020026020018201604052801561441757816020015b614404614edc565b8152602001906001900390816143fc5790505b5090508882600081518110151561442a57fe5b906020019060200201819052508682600181518110151561444757fe5b906020019060200201819052508482600281518110151561446457fe5b906020019060200201819052508781600081518110151561448157fe5b906020019060200201819052508581600181518110151561449e57fe5b90602001906020020181905250838160028151811015156144bb57fe5b906020019060200201819052506144d28282614a16565b925050509695505050505050565b600073ffffffffffffffffffffffffffffffffffffffff166003600083815260200190815260200160002060009054906101000a900473ffffffffffffffffffffffffffffffffffffffff1673ffffffffffffffffffffffffffffffffffffffff1614151561459d5760006003600083815260200190815260200160002060006101000a81548173ffffffffffffffffffffffffffffffffffffffff021916908373ffffffffffffffffffffffffffffffffffffffff1602179055505b50565b6145b8600182600001546145d990919063ffffffff16565b816000018190555050565b6001816000016000828254019250508190555050565b60008282111515156145ea57600080fd5b600082840390508091505092915050565b6060808690506060869050606086905060608690506060869050606081518351855187518951010101016040519080825280601f01601f1916602001820160405280156146575781602001600182028038833980820191505090505b509050606081905060008090506000809050600090505b885181101561472157888181518110151561468557fe5b9060200101517f010000000000000000000000000000000000000000000000000000000000000090047f01000000000000000000000000000000000000000000000000000000000000000283838060010194508151811015156146e457fe5b9060200101907effffffffffffffffffffffffffffffffffffffffffffffffffffffffffffff1916908160001a905350808060010191505061466e565b600090505b87518110156147d957878181518110151561473d57fe5b9060200101517f010000000000000000000000000000000000000000000000000000000000000090047f010000000000000000000000000000000000000000000000000000000000000002838380600101945081518110151561479c57fe5b9060200101907effffffffffffffffffffffffffffffffffffffffffffffffffffffffffffff1916908160001a9053508080600101915050614726565b600090505b86518110156148915786818151811015156147f557fe5b9060200101517f010000000000000000000000000000000000000000000000000000000000000090047f010000000000000000000000000000000000000000000000000000000000000002838380600101945081518110151561485457fe5b9060200101907effffffffffffffffffffffffffffffffffffffffffffffffffffffffffffff1916908160001a90535080806001019150506147de565b600090505b85518110156149495785818151811015156148ad57fe5b9060200101517f010000000000000000000000000000000000000000000000000000000000000090047f010000000000000000000000000000000000000000000000000000000000000002838380600101945081518110151561490c57fe5b9060200101907effffffffffffffffffffffffffffffffffffffffffffffffffffffffffffff1916908160001a9053508080600101915050614896565b600090505b8451811015614a0157848181518110151561496557fe5b9060200101517f010000000000000000000000000000000000000000000000000000000000000090047f01000000000000000000000000000000000000000000000000000000000000000283838060010194508151811015156149c457fe5b9060200101907effffffffffffffffffffffffffffffffffffffffffffffffffffffffffffff1916908160001a905350808060010191505061494e565b82995050505050505050505095945050505050565b600081518351141515614a2857600080fd5b6000835190506000600682029050606081604051908082528060200260200182016040528015614a675781602001602082028038833980820191505090505b50905060008090505b83811015614c45578681815181101515614a8657fe5b90602001906020020151600001518260006006840201815181101515614aa857fe5b90602001906020020181815250508681815181101515614ac457fe5b90602001906020020151602001518260016006840201815181101515614ae657fe5b90602001906020020181815250508581815181101515614b0257fe5b90602001906020020151600001516000600281101515614b1e57fe5b60200201518260026006840201815181101515614b3757fe5b90602001906020020181815250508581815181101515614b5357fe5b90602001906020020151600001516001600281101515614b6f57fe5b60200201518260036006840201815181101515614b8857fe5b90602001906020020181815250508581815181101515614ba457fe5b90602001906020020151602001516000600281101515614bc057fe5b60200201518260046006840201815181101515614bd957fe5b90602001906020020181815250508581815181101515614bf557fe5b90602001906020020151602001516001600281101515614c1157fe5b60200201518260056006840201815181101515614c2a57fe5b90602001906020020181815250508080600101915050614a70565b50614c4e614f03565b60006020826020860260208601600060086107d05a03f190508060008114614c7557614c77565bfe5b50801515614c8457600080fd5b6000826000600181101515614c9557fe5b602002015114159550505050505092915050565b61024060405190810160405280614cbe614e55565b8152602001614ccb614e55565b8152602001614cd8614edc565b8152602001614ce5614e55565b8152602001614cf2614e55565b8152602001614cff614e55565b8152602001614d0c614e55565b8152602001614d19614e55565b81525090565b828054600181600116156101000203166002900490600052602060002090601f016020900481019282601f10614d6057805160ff1916838001178555614d8e565b82800160010185558215614d8e579182015b82811115614d8d578251825591602001919060010190614d72565b5b509050614d9b9190614f26565b5090565b61032060405190810160405280614db4614edc565b8152602001614dc1614e55565b8152602001614dce614edc565b8152602001614ddb614edc565b8152602001614de8614e55565b8152602001614df5614edc565b8152602001614e02614edc565b8152602001606081525090565b604080519081016040528060008152602001600081525090565b815481835581811115614e5057818360005260206000209182019101614e4f9190614f26565b5b505050565b604080519081016040528060008152602001600081525090565b606060405190810160405280600390602082028038833980820191505090505090565b608060405190810160405280600490602082028038833980820191505090505090565b608060405190810160405280614ec9614f4b565b8152602001614ed6614f4b565b81525090565b608060405190810160405280614ef0614f4b565b8152602001614efd614f4b565b81525090565b602060405190810160405280600190602082028038833980820191505090505090565b614f4891905b80821115614f44576000816000905550600101614f2c565b5090565b90565b604080519081016040528060029060208202803883398082019150509050509056fe546f206164647265737320697320746865206f776e6572206f662074686520676976656e20746f6b656e21546f6b656e206d75737420626520747261736e666572656420746f20612076616c69642061646472657373215472616e73616374696f6e207375636365737366756c6c792076657269666965642e546869732073686f756c642062652063616c6c6564206279206f776e6572206f6e6c7921546f6b656e2063616e2062652074726e73666572726564206279206f776e6572206f6e6c792153656e646572206973206e6f7420746865206f776e6572206f662074686520676976656e20746f6b656e21a165627a7a72305820f6abd8a06b8336b76f4138cd21d0fcf18acdc6ed343a9cbd00b5c9e0fb888179002968747470733a2f2f73332d75732d776573742d322e616d617a6f6e6177732e636f6d2f756461636974792d626c6f636b636861696e2f63617073746f6e652f",
  "source": "pragma solidity >=0.4.21 <0.6.0;\n\n// TODO define a contract call to the zokrates generated solidity contract <Verifier> or <renamedVerifier>\n//import the required contracts \nimport './verifier.sol';\nimport './ERC721Mintable.sol';\n\n\n// TODO define another contract named SolnSquareVerifier that inherits from your ERC721Mintable class\ncontract SolnSquareVerifier is CustomERC721Token, Verifier {\n    // TODO define a solutions struct that can hold an index & an address\n    struct Solution {\n        uint256 tokenId; \n        address owner; \n    }\n\n    // TODO define an array of the above struct\n    Solution[] solutionsArray;\n\n    // TODO define a mapping to store unique solutions submitted\n    mapping(bytes32 => Solution) uniqueSolutions; \n\n    // TODO Create an event to emit when a solution is added\n    event SolutionAdded(address owner, uint256 tokenId);\n    \n    // TODO Create a function to add the solutions to the array and emit the event\n    function addUniqueSolution(address owner, uint256 tokenId, bytes32 unique) public {\n        //TODO fill the function\n        require(uniqueSolutions[unique].owner == address(0), 'Solution exists already!');\n        uniqueSolutions[unique] = Solution({tokenId: tokenId, owner: owner}); \n        emit SolutionAdded(owner, tokenId);\n    }\n\n\n    // TODO Create a function to mint new NFT only after the solution has been verified\n    //  - make sure the solution is unique (has not been used before)\n    //  - make sure you handle metadata as well as tokenSuplly\n    function mintNFT(address owner, uint256 tokenId, string memory tokenURI,\n            /* added from verifier class (all verification parameters) */\n            uint[2] memory a,\n            uint[2] memory a_p,\n            uint[2][2] memory b,\n            uint[2] memory b_p,\n            uint[2] memory c,\n            uint[2] memory c_p,\n            uint[2] memory h,\n            uint[2] memory k,\n            uint[2] memory input) public onlyOwner() {\n        \n        bool valid = super.verifyTx(a, a_p, b, b_p, c, c_p, h, k, input);\n        require(valid, 'Solution is not valid!');\n        \n        bytes32 unique = keccak256(abi.encodePacked(a, a_p, b, b_p, c, c_p, h, k, input));\n        addUniqueSolution(owner, tokenId, unique);\n\n        //TODO handle metadata and tokenSupply!\n        //this is handled by inhiretance. \n    }\n\n}\n\n\n\n\n\n\n\n\n\n\n\n\n\n\n\n\n  \n\n\n\n\n\n\n\n\n\n\n\n\n\n\n\n\n\n\n\n\n\n\n\n\n\n\n",
  "sourcePath": "/Users/abz/Development/BCND/CH8/Blockchain-Capstone/eth-contracts/contracts/SolnSquareVerifier.sol",
  "compiler": {
    "name": "solc",
    "version": "0.5.2+commit.1df8f40c.Emscripten.clang"
  },
  "schemaVersion": "3.0.8",
  "updatedAt": "2019-04-29T18:20:57.964Z",
  "devdoc": {
    "methods": {
      "isApprovedForAll(address,address)": {
        "details": "Tells whether an operator is approved by a given owner",
        "params": {
          "operator": "operator address which you want to query the approval of",
          "owner": "owner address which you want to query the approval of"
        },
        "return": "bool whether the given operator is approved by the given owner"
      },
      "setApprovalForAll(address,bool)": {
        "details": "Sets or unsets the approval of a given operator An operator is allowed to transfer all tokens of the sender on their behalf",
        "params": {
          "approved": "representing the status of the approval to be set",
          "to": "operator address to set the approval"
        }
      },
      "supportsInterface(bytes4)": {
        "details": "implement supportsInterface(bytes4) using a lookup table"
      },
      "tokenByIndex(uint256)": {
        "details": "Gets the token ID at a given index of all the tokens in this contract Reverts if the index is greater or equal to the total number of tokens",
        "params": {
          "index": "uint256 representing the index to be accessed of the tokens list"
        },
        "return": "uint256 token ID at the given index of the tokens list"
      },
      "tokenOfOwnerByIndex(address,uint256)": {
        "details": "Gets the token ID at a given index of the tokens list of the requested owner",
        "params": {
          "index": "uint256 representing the index to be accessed of the requested tokens list",
          "owner": "address owning the tokens list to be accessed"
        },
        "return": "uint256 token ID at the given index of the tokens list owned by the requested address"
      },
      "totalSupply()": {
        "details": "Gets the total amount of tokens stored by the contract",
        "return": "uint256 representing the total amount of tokens"
      }
    }
  },
  "userdoc": {
    "methods": {}
  }
}